:020000040800F2
:100000000000012045050008910500089105000841
:100010009105000891050008910500080000000006
:100020000000000000000000000000009105000832
:1000300091050008000000009105000891050008E6
:100040009105000891050008910500089105000838
:100050009105000891050008910500089105000828
:100060009105000891050008910500089105000818
:100070009105000891050008910500089105000808
:100080009105000891050008910500080000000096
:1000900000000000000000000000000091050008C2
:1000A00091050008910500089105000891050008D8
:1000B00091050008910500089105000891050008C8
:1000C00091050008910500089105000891050008B8
:1000D0009105000891050008910500080000000046
:1000E0009105000891050008910500080000000036
:1000F0000000000000000000000000009105000862
:100100000000000091050008910500089105000815
:1001100000000000000000000000000000000000DF
:100120009105000891050008910500089105000857
:100130009105000800000000000000000000000021
:100140000000000000000000000000009105000811
:100150009105000891050008910500089105000827
:100160009105000891050008000000000000000053
:10017000000000000000000000000000000000007F
:1001800000000000910500080000000000000000D1
:0401900091050008CD
:1001940010B5054C237833B9044B13B10448AFF3BD
:1001A40000800123237010BDA00000200000000087
:1001B4009405000808B5034B1BB103490348AFF38A
:1001C400008008BD00000000A40000209405000881
:1001D40080B582B000AF00F00EF800F071F800F0C6
:1001E400BDF800F013F903467B607B68DBB2184668
:1001F40000F024F9F5E780B400AF2C4B1B681A68B3
:100204002A4B1B6842F004021A60284B1B681A68C8
:10021400264B1B6842F002021A60244B1B681A68C2
:10022400224B1B6842F001021A60214B1B681A68BA
:100234001F4B1B6822F480321A601D4B1B681A681E
:100244001B4B1B6842F480321A6000BF184B1B68BA
:100254001B6803F40033002BF8D0164B1B681A6894
:10026400144B1B6822F003021A60124B1B681A68B5
:10027400104B1B6842F001021A6000BF0D4B1B6853
:100284001B680D4B1B681A680B4B1B6842F4003249
:100294001A600A4B1B681A68084B1B6842F4003248
:1002A4001A6000BFBD465DF8047B70470C00002057
:1002B400000000200800002010000020140000208E
:1002C40080B400AF214B1B681A68204B1B6822F0D6
:1002D400F0021A601D4B1B681A681C4B1B6842F025
:1002E400A0021A601A4B1A68194B1B6812681A602C
:1002F400184B1B681A68174B1B6822F0F0021A602F
:10030400154B1B681A68144B1B6822F470621A6040
:10031400114B1B681A68104B1B6842F4E0621A60A8
:100324000D4B1B681A680C4B1B6822F470421A6050
:10033400094B1B681A68084B1B6842F4E0421A60B8
:1003440000BFBD465DF8047B704700BF300000204D
:10035400340000203C0000204000002080B400AFA6
:10036400284B1B681A68274B1B6842F400521A601A
:10037400254B1B681B68244A126823F47F4323F02F
:10038400F0031360204B1B681B681F4A126843F478
:10039400A25343F0100313601B4B1B681A681A4BDB
:1003A4001B6822F00F021A60174B1B681A68164B61
:1003B4001B6842F004021A60124B1B681A68114B46
:1003C4001B6842F400421A600E4B1B681A680D4BFE
:1003D4001B6822F480521A600A4B1B681A68094B86
:1003E4001B6842F004021A60064B1B681A68054B2E
:1003F4001B6842F008021A6000BFBD465DF8047B2A
:10040400704700BF900000208C00002080B400AF33
:1004140000BF084B1B681B6803F02003002BF8D0B7
:10042400054B1B681B68DBB21846BD465DF8047BB0
:10043400704700BF840000208800002080B483B08F
:1004440000AF0346FB71134B1B681A68114B1B6802
:1004540022F040021A6000BF0E4B1B681B6803F0B9
:100464008003002BF8D00C4B1B68FA791A600A4BF6
:100474001B68FA791A6000BF064B1B681B6803F0FF
:100484004003002BF8D000BF00BF0C37BD465DF819
:10049400047B7047840000208800002080B582B06F
:1004A40000AF786006E07B685A1C7A601B781846B7
:1004B400FFF7C4FF7B681B78002BF4D100BF00BF9B
:1004C4000837BD4680BD80B483B000AF00237B6095
:1004D40000237B6002E07B6801337B607B68054A14
:1004E4009342F8D900BF00BF0C37BD465DF8047BCA
:1004F400704700BF3F420F0070B50D4D0D4C641B9B
:10050400A4100026A64209D10B4D0C4C00F040F873
:10051400641BA4100026A64205D170BD55F8043B07
:1005240098470136EEE755F8043B98470136F2E761
:10053400AC050008AC050008AC050008B0050008CF
:10054400DFF830D00C480D490D4A002302E0D4589E
:10055400C4500433C4188C42F9D30A4A0A4C002309
:1005640001E013600432A242FBD3FFF7C5FFFFF79B
:100574002FFE70470000012000000020A000002092
:10058400B4050008A0000020BC000020FEE7000025
:10059400F8B500BFF8BC08BC9E467047F8B500BF6C
:0805A400F8BC08BC9E4670473C
:0405AC00B901000889
:0405B00095010008A9
:1005B4000038024004380240083802403038024013
:1005C400443802404038024000040240040402401F
:1005D400140402400C04024020040240240402409B
:1005E4000000024004000240140002400C000240DB
:1005F40020000240004401402444014028440140BA
:100604002C44014010440140144401400C44014076
:1006140018440140344401402044014000E100E01A
:1006240080E100E000E200E080E200E000E300E0BE
:1006340000E400E00044004004440040084400405A
:100644000C4400401044004014440040184400404E
:0400000508000545A5
:00000001FF
