:020000040800F2
:1000000000000120ED03000839040008390400084D
:100010003904000839040008390400080000000011
:10002000000000000000000000000000390400088B
:1000300039040008000000003904000839040008F1
:10004000390400083904000839040008390400089C
:10005000390400083904000839040008390400088C
:10006000390400083904000839040008390400087C
:10007000390400083904000839040008390400086C
:1000800039040008390400083904000800000000A1
:10009000000000000000000000000000390400081B
:1000A000390400083904000839040008390400083C
:1000B000390400083904000839040008390400082C
:1000C000390400083904000839040008390400081C
:1000D0003904000839040008390400080000000051
:1000E0003904000839040008390400080000000041
:1000F00000000000000000000000000039040008BB
:100100000000000039040008390400083904000820
:1001100000000000000000000000000000000000DF
:1001200039040008390400083904000839040008BB
:10013000390400080000000000000000000000007A
:10014000000000000000000000000000390400086A
:10015000390400083904000839040008390400088B
:100160003904000839040008000000000000000005
:10017000000000000000000000000000000000007F
:10018000000000003904000800000000000000002A
:040190003904000826
:1001940010B5054C237833B9044B13B10448AFF3BD
:1001A40000800123237010BD2C00002000000000FB
:1001B4003C04000808B5034B1BB103490348AFF3E3
:1001C400008008BD00000000300000203C0400084E
:1001D40080B500AF00F007F800F04EF800F0A0F88A
:1001E40000F0BEF8FAE780B400AF204B1B681A6831
:1001F4001E4B1B6842F002021A601C4B1B681A68F3
:100204001A4B1B6842F004021A60194B1B681A68E7
:10021400174B1B6822F480321A60154B1B681A684E
:10022400134B1B6842F480321A6000BF104B1B68EA
:100234001B6803F40033002BF8D00E4B1B681A68BC
:100244000C4B1B6822F003021A600A4B1B681A68E5
:10025400084B1B6842F001021A6000BF054B1B6883
:100264001B6800BFBD465DF8047B70470C0000208E
:10027400000000200800002080B400AF164B1B686B
:100284001A68154B1B6842F080621A60134B1B6896
:100294001A68124B1B6842F400521A60104B1B6818
:1002A40000221A600F4B1B681A680E4B1B6842F041
:1002B40010021A600C4B1B6800221A600B4B1B685F
:1002C4001A680A4B1B6842F004021A6000BFBD465C
:1002D4005DF8047B704700BF20000020240000204C
:1002E4002800002014000020180000201C0000201A
:1002F40080B483B000AF00237B6000237B6002E006
:100304007B6801337B607B68044A9342F8D300BF67
:1003140000BF0C37BD465DF8047B7047A02526005E
:1003240080B500AFFFF7E4FF0C4B1B681B6803F4B8
:100334000053002B08D0094B1B681A68074B1B6835
:1003440022F400521A6007E0044B1B681A68034B3E
:100354001B6842F400521A6000BF80BD28000020D0
:1003640080B500AFFFF7C4FF0C4B1B681B6803F09C
:100374000403002B08D0094B1B681A68074B1B6841
:1003840022F004021A6007E0044B1B681A68034B4E
:100394001B6842F004021A6000BF80BD1C000020EC
:1003A40070B50D4D0D4C641BA4100026A64209D156
:1003B4000B4D0C4C00F040F8641BA4100026A64220
:1003C40005D170BD55F8043B98470136EEE755F862
:1003D400043B98470136F2E754040008540400082B
:1003E4005404000858040008DFF830D00C480D49C4
:1003F4000D4A002302E0D458C4500433C4188C427C
:10040400F9D30A4A0A4C002301E013600432A242E1
:10041400FBD3FFF7C5FFFFF7DBFE704700000120A9
:10042400000000202C0000205C0400082C000020A8
:1004340048000020FEE70000F8B500BFF8BC08BC87
:100444009E467047F8B500BFF8BC08BC9E4670478E
:04045400B9010008E2
:040458009501000802
:10045C00003802400438024008380240303802406C
:10046C0044380240000402400404024014040240D8
:0C047C000008024004080240140802407E
:04000005080003EDFF
:00000001FF
