:020000040800F2
:100000000000012089050008D5050008D505000875
:10001000D5050008D5050008D5050008000000003A
:10002000000000000000000000000000D5050008EE
:10003000D505000800000000D5050008D50500081A
:10004000D5050008D5050008D5050008D505000828
:10005000D5050008D5050008D5050008D505000818
:10006000D5050008D5050008D5050008D505000808
:10007000D5050008D5050008D5050008D5050008F8
:10008000D5050008D5050008D505000800000000CA
:10009000000000000000000000000000D50500087E
:1000A000D5050008D5050008D5050008D5050008C8
:1000B000D5050008D5050008D5050008D5050008B8
:1000C000D5050008D5050008D5050008D5050008A8
:1000D000D5050008D5050008D5050008000000007A
:1000E000D5050008D5050008D5050008000000006A
:1000F000000000000000000000000000D50500081E
:1001000000000000D5050008D5050008D505000849
:1001100000000000000000000000000000000000DF
:10012000D5050008D5050008D5050008D505000847
:10013000D5050008000000000000000000000000DD
:10014000000000000000000000000000D5050008CD
:10015000D5050008D5050008D5050008D505000817
:10016000D5050008D50500080000000000000000CB
:10017000000000000000000000000000000000007F
:1001800000000000D505000800000000000000008D
:04019000D505000889
:1001940010B5054C237833B9044B13B10448AFF3BD
:1001A40000800123237010BD6C00002000000000BB
:1001B400D805000808B5034B1BB103490348AFF346
:1001C400008008BD0000000070000020D805000871
:1001D40080B500AF00F044F800F096F800F01AF98A
:1001E40000BF1C4B1B681B6803F00203002BF8D0F4
:1001F400194B1B681A68184B1B6822F070021A60AE
:10020400154B1B681A68144B1B6842F020021A60D5
:10021400124B1B6864221A6000BF0E4B1B681B68DC
:1002240003F00203002BF8D00B4B1B681A680A4B2F
:100234001B6822F070021A60074B1B681A68064B91
:100244001B6842F010021A60044B1B6819221A60E2
:10025400C6E700BF3C000020480000204C000020FE
:1002640080B400AF244B1B681A68234B1B6842F010
:1002740004021A60204B1B681A681F4B1B6842F06B
:1002840002021A601D4B1B681A681C4B1B6822F47F
:1002940080321A60194B1B681A68184B1B6842F4A9
:1002A40080321A6000BF154B1B681B6803F40033CF
:1002B400002BF8D0124B1B681A68114B1B6822F0F4
:1002C40003021A600E4B1B681A680D4B1B6842F040
:1002D40001021A6000BF0A4B1B681B68094B1B68AC
:1002E4001A68084B1B6842F400321A6000BFBD460E
:1002F4005DF8047B704700BF0C0000200000002064
:10030400080000201000002080B400AF384B1B68A8
:100314001A68374B1B6842F080021A60344B1A6823
:10032400334B1B6812681A60314B1A68304B1B68D8
:1003340012681A602E4B1A682D4B1B6812681A60DB
:100344002C4B1B681A682B4B1B6822F001021A60A5
:10035400294B1B681A68284B1B6842F001021A607B
:10036400264B1B681A68254B1B6822F070021A6022
:10037400224B1B681A68214B1B6842F010021A605A
:100384001E4B1B681A681D4B1B6822F008021A607A
:100394001A4B1B681A68194B1B6822F003021A6077
:1003A400174B1B6800221A60164B1B684FF47A72B5
:1003B4001A60154B1B684FF47A721A60134B1B6852
:1003C4001A68124B1B6842F001021A60104B1B683A
:1003D40019221A60064B1B681A68054B1B6842F009
:1003E40001021A6000BFBD465DF8047B704700BF80
:1003F4002C0000203C000020400000204800002089
:10040400300000203400002038000020500000207C
:100414004C00002080B400AF1D4B1B681A681C4BB5
:100424001B6822F400321A60194B1B681A68184BB7
:100434001B6842F400321A60164B1A68154B1B688D
:1004440012681A60144B1B681A68134B1B6842F439
:1004540080721A60114B1B681A68104B1B6842F4B7
:1004640000321A600E4B1B681A680D4B1B6822F091
:1004740003021A600A4B1B681A68094B1B6842F096
:1004840003021A6000BFBD465DF8047B704700BFDD
:1004940014000020180000201C0000202000002070
:1004A4002800002080B483B000AF00237B600023C9
:1004B4007B6002E07B6801337B607B68044A934283
:1004C400F8D900BF00BF0C37BD465DF8047B704708
:1004D4003F420F0080B400AF00BF164B1B681B687F
:1004E40003F00103002BF8D0124B1B681A68114B60
:1004F4001B6822F001021A600F4B1B681B6803F48F
:100504008073002B08D00C4B1B681A680A4B1B68BD
:1005140022F480721A6007E0074B1B681A68064BC6
:100524001B6842F480721A6000BFBD465DF8047B0C
:10053400704700BF3C0000201C00002070B50D4D2A
:100544000D4C641BA4100026A64209D10B4D0C4C83
:1005540000F040F8641BA4100026A64205D170BD2B
:1005640055F8043B98470136EEE755F8043B9847A5
:100574000136F2E7F0050008F0050008F005000870
:10058400F4050008DFF830D00C480D490D4A00236B
:1005940002E0D458C4500433C4188C42F9D30A4A34
:1005A4000A4C002301E013600432A242FBD3FFF79C
:1005B400C5FFFFF70DFE704700000120000000207A
:1005C4006C000020F80500086C0000208800002062
:1005D400FEE70000F8B500BFF8BC08BC9E467047B3
:0C05E400F8B500BFF8BC08BC9E4670478C
:0405F000B901000845
:0405F4009501000865
:1005F80000380240043802400838024030380240CF
:10060800443802400004024004040240140402403A
:100618000C0402402004024024040240004401402B
:1006280024440140284401402C4401401044014026
:10063800144401400C440140184401403444014032
:100648002044014000E100E080E100E000E200E039
:0C06580080E200E000E300E000E400E0CD
:040000050800058961
:00000001FF
