:020000040800F2
:1000000000000120A9060008F5060008F506000812
:10001000F5060008F5060008F506000800000000D7
:10002000000000000000000000000000F5060008CD
:10003000F506000800000000F5060008F5060008B7
:10004000F5060008F5060008F5060008F5060008A4
:10005000F5060008F5060008F5060008F506000894
:10006000F5060008F5060008F5060008F506000884
:10007000F5060008F5060008F5060008F506000874
:10008000F5060008F5060008F50600080000000067
:10009000000000000000000000000000F50600085D
:1000A000F5060008F5060008F5060008F506000844
:1000B000F5060008F5060008F5060008F506000834
:1000C000F5060008F5060008F5060008F506000824
:1000D000F5060008F5060008F50600080000000017
:1000E000F5060008F5060008F50600080000000007
:1000F000000000000000000000000000F5060008FD
:1001000000000000F5060008F5060008F5060008E6
:1001100000000000000000000000000000000000DF
:10012000F5060008F5060008F5060008F5060008C3
:10013000F5060008000000000000000000000000BC
:10014000000000000000000000000000F5060008AC
:10015000F5060008F5060008F5060008F506000893
:10016000F5060008F5060008000000000000000089
:10017000000000000000000000000000000000007F
:1001800000000000F506000800000000000000006C
:04019000F506000868
:1001940010B5054C237833B9044B13B10448AFF3BD
:1001A40000800123237010BDF8000020000000002F
:1001B400F806000808B5034B1BB103490348AFF325
:1001C400008008BD00000000FC000020F8060008C4
:1001D40080B582B000AF00F01DF800F089F800F09F
:1001E400DBF9094800F032FA03467B60074800F067
:1001F4002DFA03463B60064B1B681846024B7A688F
:10020400194600F0C5F8FEE7C8000020DC00002015
:100214008800002080B400AF304B1B681A682F4B55
:100224001B6842F004021A602C4B1B681A682B4BA3
:100234001B6842F002021A60284B1B681A68274B9D
:100244001B6842F001021A60254B1B681A68244B94
:100254001B6822F480321A60214B1B681A68204BF9
:100264001B6842F480321A6000BF1D4B1B681B6878
:1002740003F40033002BF8D01A4B1B681A68194B8F
:100284001B6822F003021A60164B1B681A68154B90
:100294001B6842F001021A6000BF124B1B681B6806
:1002A400114B1B681A68104B1B6842F400321A6029
:1002B4000E4B1B681A680D4B1B6842F400321A601F
:1002C400064B1B681A68054B1B6842F400121A603F
:1002D40000BFBD465DF8047B704700BF0C000020E2
:1002E400000000200800002010000020140000205E
:1002F40080B400AF224B1B681A68214B1B6822F0A4
:10030400F0021A601E4B1B681A681D4B1B6842F0F2
:10031400A0021A601B4B1B681A681A4B1B6822F058
:1003240004021A60184B1B681A68174B1B6822F0EA
:10033400F0021A60154B1B681A68144B1B6822F4F0
:1003440070621A60114B1B681A68104B1B6842F4E8
:10035400E0621A600D4B1B681A680C4B1B6822F490
:1003640070421A60094B1B681A68084B1B6842F4F8
:10037400E0421A6000BFBD465DF8047B704700BFD1
:1003840030000020340000203C0000204000002009
:1003940080B485B000AFF860B9607A605D4B1B68CB
:1003A4001A685C4B1B6822F001021A6000BF594BAB
:1003B4001B681B6803F00103002BF8D1564B1B6824
:1003C4001A68554B1B6822F470121A60534B1A6852
:1003D400534B1B681A60534B1B68BA681A60524B24
:1003E4001B687A681A604B4B1B681A68494B1B6878
:1003F40022F060621A60474B1B681A68454B1B6801
:1004040042F000621A60434B1B681A68414B1B6838
:1004140022F020021A603F4B1B681A683D4B1B6890
:1004240022F440321A603B4B1B681A68394B1B6834
:1004340022F0C0721A60374B1B681A68354B1B6870
:1004440022F4C0021A60334B1B681A68314B1B68D4
:1004540022F400221A602F4B1B681A682D4B1B686C
:1004640042F480221A602B4B1B681A68294B1B68C4
:1004740042F400421A602D4B1B681A682B4B1B6810
:1004840022F004021A60294B1B681A68274B1B6868
:1004940022F4C0521A60254B1B681A68234B1B6850
:1004A40022F4C0421A601B4B1B681A68194B1B6864
:1004B40042F480621A60174B1B681A68154B1B685C
:1004C40022F400721A60134B1B681A68114B1B68E4
:1004D40022F480721A600F4B1B681A680D4B1B685C
:1004E40022F0C0021A600B4B1B681A68094B1B6888
:1004F40042F040021A60074B1B681A68054B1B68E0
:1005040042F001021A6000BF1437BD465DF8047B57
:10051400704700BFB0000020AC000020880000201D
:10052400B8000020BC000020B4000020C40000205B
:1005340080B483B000AF78603960114B1B681A68CF
:100544000F4B1B6822F470121A600E4B1A680E4B84
:100554001B681A600D4B1B687A681A600C4B1B6889
:100564003A681A600B4B1B681A680A4B1B6842F006
:1005740001021A6000BF0C37BD465DF8047B70476A
:10058400AC00002088000020B8000020BC0000203F
:10059400B4000020B000002080B400AF284B1B68DA
:1005A4001A68274B1B6842F400521A60254B1B68DB
:1005B4001B68244A126823F47F4323F0F00313607A
:1005C400204B1B681B681F4A126843F4A25343F074
:1005D400100313601B4B1B681A681A4B1B6822F02C
:1005E4000F021A60174B1B681A68164B1B6842F0FF
:1005F40004021A60124B1B681A68114B1B6842F400
:1006040000421A600E4B1B681A680D4B1B6822F4DB
:1006140080521A600A4B1B681A68094B1B6842F027
:1006240008021A60084B1B681A68074B1B6842F0E3
:1006340080021A6000BFBD465DF8047B704700BFAE
:10064400900000208C00002098000020034613F83E
:10065400012B002AFBD1181A0138704770B50D4DD3
:100664000D4C641BA4100026A64209D10B4D0C4C62
:1006740000F040F8641BA4100026A64205D170BD0A
:1006840055F8043B98470136EEE755F8043B984784
:100694000136F2E7100700081007000810070008E9
:1006A40014070008DFF830D00C480D490D4A002328
:1006B40002E0D458C4500433C4188C42F9D30A4A13
:1006C4000A4C002301E013600432A242FBD3FFF77B
:1006D400C5FFFFF77DFD70470000012000000020EA
:1006E400F800002018070008F8000020140100207A
:1006F400FEE70000F8B500BFF8BC08BC9E46704792
:0C070400F8B500BFF8BC08BC9E4670476A
:04071000B901000823
:040714009501000843
:1007180000380240043802400838024030380240AD
:1007280044380240403802400004024004040240B9
:10073800140402400C040240200402402404024035
:100748000000024004000240140002400C00024075
:100758002000024000440140244401402844014054
:100768002C44014010440140144401400C44014011
:1007780018440140344401402044014000E100E0B5
:1007880080E100E000E200E080E200E000E300E059
:1007980000E400E0004400400444004008440040F5
:1007A8000C440040104400401444004018440040E9
:1007B8000060024004600240086002400C60024091
:1007C800A0600240A4600240A8600240AC60024001
:1007D800B0600240B46002407363686F6F6C206F52
:1007E80066206C696E75780D0A00000041524D2034
:1007F800434F5254455853544D33322070726F63EF
:080808006573730D0A00000086
:04000005080006A940
:00000001FF
