:020000040800F2
:1000000000000120B90700080508000805080008DD
:1000100005080008050800080508000800000000A1
:1000200000000000000000000000000005080008BB
:100030000508000800000000050800080508000881
:10004000050800080508000805080008050800085C
:10005000050800080508000805080008050800084C
:10006000050800080508000805080008050800083C
:10007000050800080508000805080008050800082C
:100080000508000805080008050800080000000031
:10009000000000000000000000000000050800084B
:1000A00005080008050800080508000805080008FC
:1000B00005080008050800080508000805080008EC
:1000C00005080008050800080508000805080008DC
:1000D00005080008050800080508000800000000E1
:1000E00005080008050800080508000800000000D1
:1000F00000000000000000000000000005080008EB
:1001000000000000050800080508000805080008B0
:1001100000000000000000000000000000000000DF
:10012000050800080508000805080008050800087B
:1001300005080008000000000000000000000000AA
:10014000000000000000000000000000050800089A
:10015000050800080508000805080008050800084B
:100160000508000805080008000000000000000065
:10017000000000000000000000000000000000007F
:10018000000000000508000800000000000000005A
:040190000508000856
:1001940010B5054C237833B9044B13B10448AFF3BD
:1001A40000800123237010BD2C00002000000000FB
:1001B4000808000808B5034B1BB103490348AFF313
:1001C400008008BD0000000030000020080800087E
:1001D40080B584B000AF0023FB710E4800F0BEFA76
:1001E4000346FB600C4800F0B9FA0346BB6000F01C
:1001F40015F800F08DF800F017F9FA1D01236B21B2
:10020400D02000F093F9FA1D01237521D02000F0CD
:10021400F9F9FEE7180000202400002080B400AFA4
:100224003A4B1B681A6B394B1B6842F004021A6381
:10023400364B1B681A6B354B1B6842F002021A637B
:10024400324B1B681A6B314B1B6842F001021A6374
:100254002E4B1B681A682D4B1B6822F480321A60DF
:100264002A4B1B681A68294B1B6842F480321A60B7
:1002740000BF264B1B681B6803F40033002BF8D027
:10028400224B1B689A68214B1B6822F003029A6078
:100294001E4B1B689A681D4B1B6842F001029A6052
:1002A40000BF1A4B1B685A6C184B1B6842F400328F
:1002B4005A64164B1B681A6C144B1B6842F40032C8
:1002C4001A64124B1B685A6C104B1B6842F01002E4
:1002D4005A640E4B1B681A6B0C4B1B6842F40012D9
:1002E4001A630A4B1B681A6B084B1B6842F48002A2
:1002F4001A63064B1B681A6C044B1B6842F4001209
:100304001A6400BFBD465DF8047B704704000020FA
:1003140080B400AF424B1B681A68414B1B6822F043
:10032400F0021A603E4B1B681A683D4B1B6842F092
:10033400A0021A603A4B1B685A68394B1B6822F0BA
:1003440004025A60364B1B68DA68354B1B6822F08E
:10035400F002DA60324B1B681A6A314B1B6822F4D4
:1003640070621A622E4B1B681A6A2D4B1B6842F48A
:10037400E0621A622A4B1B681A6A294B1B6822F432
:1003840070421A62264B1B681A6A254B1B6842F49A
:10039400E0421A62234B1B681A68224B1B6822F442
:1003A40070421A601F4B1B681A681E4B1B6842F48C
:1003B40020421A601B4B1B685A681A4B1B6842F098
:1003C400C0025A60174B1B68DA68164B1B6822F48C
:1003D4007042DA60134B1B681A6A124B1B6822F0D6
:1003E40070621A620F4B1B681A6A0E4B1B6842F04C
:1003F40080621A620B4B1B681A6A0A4B1B6822F054
:1004040070421A62074B1B681A6A064B1B6842F05B
:1004140080421A6200BFBD465DF8047B704700BF8E
:10042400080000200C00002080B400AF3E4B1B6885
:100434001A683D4B1B6822F400421A603A4B1B6851
:100444001A68394B1B6822F400521A60364B1B6839
:100454001A68354B1B6822F480521A60324B1B68B1
:100464001A68314B1B6822F400621A602E4B1B6819
:100474001A682D4B1B6822F080021A602A4B1B68F5
:100484001A68294B1B6822F040021A60264B1B682D
:100494001A68254B1B6822F020021A60224B1B6845
:1004A4001A68214B1B6822F010021A601E4B1B684D
:1004B4001A681D4B1B6822F008021A601A4B1B684D
:1004C4001A68194B1B6822F002021A60164B1B684B
:1004D4005A68154B1B6842F400625A60124B1B6841
:1004E4005A68114B1B6822F03F025A600E4B1B687E
:1004F4005A680D4B1B6842F019025A600A4B1B687C
:100504007D22DA61084B1B6818221A62064B1B68AD
:100514001A68054B1B6842F001021A6000BFBD4611
:100524005DF8047B704700BF1000002080B485B0E4
:1005340000AF3A601A460346FB710B46BB71134683
:100544007B712F4B1B681A682D4B1B6842F4807219
:100554001A6000BF2A4B1B685B6903F00103002B80
:10056400F8D0274B1B689B69FB60254B1B68FA7905
:100574001A6100BF224B1B685B6903F08203002BE6
:10058400F8D01F4B1B689B69FB601D4B1B68BA7935
:100594001A6100BF1A4B1B685B6903F08003002BD0
:1005A400F8D0174B1B689B69FB600023BB6015E008
:1005B400BB683A6813441A78114B1B681A6100BF70
:1005C4000F4B1B685B6903F08003002BF8D00C4BC6
:1005D4001B689B69FB60BB680133BB607A79BB68AD
:1005E4009A42E5D8064B1B681A68054B1B6842F40F
:1005F40000721A6000BF1437BD465DF8047B704773
:100604001000002080B485B000AF3A601A4603465B
:10061400FB710B46BB7113467B714F4B1B681A6809
:100624004D4B1B6842F480721A6000BF4A4B1B6832
:100634005B6903F00103002BF8D0474B1B689B69EF
:10064400FB60454B1B68FA791A6100BF424B1B687B
:100654005B6903F08203002BF8D03F4B1B689B6956
:10066400FB603D4B1B68BA791A6100BF3A4B1B68AB
:100674005B6903F08003002BF8D0374B1B689B6940
:10068400FB60354B1B681A68334B1B6842F480725D
:100694001A6000BF304B1B685B6903F00103002B39
:1006A400F8D02D4B1B689B69FB60FB7943F0010379
:1006B400DAB2294B1B681A6100BF274B1B685B69C0
:1006C40003F08203002BF8D0234B1B689B69FB606B
:1006D4000023BB602DE07B79013B1A46BB689A423C
:1006E40008D11D4B1B681A681B4B1B6822F48062DF
:1006F4001A6007E0184B1B681A68174B1B6842F412
:1007040080621A6000BF144B1B685B6903F04003EE
:10071400002BF8D0104B1B689B69FB600E4B1B68C9
:100724001969BB683A681344CAB21A70BB680133CA
:10073400BB607A79BB689A42CDD8074B1B681A68AC
:10074400054B1B6842F400721A6000BF1437BD46A3
:100754005DF8047B704700BF10000020034613F8C7
:10076400012B002AFBD1181A0138704770B50D4DC2
:100774000D4C641BA4100026A64209D10B4D0C4C51
:1007840000F040F8641BA4100026A64205D170BDF9
:1007940055F8043B98470136EEE755F8043B984773
:1007A4000136F2E7200800082008000820080008A5
:1007B40024080008DFF830D00C480D490D4A002306
:1007C40002E0D458C4500433C4188C42F9D30A4A02
:1007D4000A4C002301E013600432A242FBD3FFF76A
:1007E400C5FFFFF7F5FC7047000001200000002062
:1007F4002C000020280800082C00002048000020BD
:10080400FEE70000F8B500BFF8BC08BC9E46704780
:0C081400F8B500BFF8BC08BC9E46704759
:04082000B901000812
:040824009501000832
:10082800001001400038024000000240000402406D
:1008380000540040006402407363686F6F6C206F5F
:0C084800660D0A006C696E75780D0A00E0
:04000005080007B92F
:00000001FF
