:020000040800F2
:100000000000012055050008A1050008A105000811
:10001000A1050008A1050008A105000800000000D6
:10002000000000000000000000000000A105000822
:10003000A105000800000000A1050008A1050008B6
:10004000A1050008A1050008A1050008A1050008F8
:10005000A1050008A1050008A1050008A1050008E8
:10006000A1050008A1050008A1050008A1050008D8
:10007000A1050008A1050008A1050008A1050008C8
:10008000A1050008A1050008A10500080000000066
:10009000000000000000000000000000A1050008B2
:1000A000A1050008A1050008A1050008A105000898
:1000B000A1050008A1050008A1050008A105000888
:1000C000A1050008A1050008A1050008A105000878
:1000D000A1050008A1050008A10500080000000016
:1000E000A1050008A1050008A10500080000000006
:1000F000000000000000000000000000A105000852
:1001000000000000A1050008A1050008A1050008E5
:1001100000000000000000000000000000000000DF
:10012000A1050008A1050008A1050008A105000817
:10013000A105000800000000000000000000000011
:10014000000000000000000000000000A105000801
:10015000A1050008A1050008A1050008A1050008E7
:10016000A1050008A1050008000000000000000033
:10017000000000000000000000000000000000007F
:1001800000000000A10500080000000000000000C1
:04019000A1050008BD
:1001940010B5054C237833B9044B13B10448AFF3BD
:1001A40000800123237010BDA00000200000000087
:1001B400A405000808B5034B1BB103490348AFF37A
:1001C400008008BD00000000A4000020A405000871
:1001D40080B582B000AF00F013F800F077F800F0BB
:1001E400C3F8064800F062F900F03EF903467B606C
:1001F4007B68DBB2184600F007F9F5E7BC05000898
:1002040080B400AF2C4B1B681A682B4B1B6842F060
:1002140004021A60284B1B681A68274B1B6842F0BB
:1002240002021A60244B1B681A68234B1B6842F0B5
:1002340001021A60214B1B681A68204B1B6822F4C8
:1002440080321A601D4B1B681A681C4B1B6842F4F1
:1002540080321A6000BF194B1B681B6803F400331B
:10026400002BF8D0164B1B681A68154B1B6822F03C
:1002740003021A60124B1B681A68114B1B6842F088
:1002840001021A6000BF0E4B1B681B680D4B1B68F4
:100294001A680C4B1B6842F400321A600A4B1B6844
:1002A4001A68094B1B6842F400321A6000BFBD464D
:1002B4005DF8047B704700BF0C00002000000020A4
:1002C40008000020100000201400002080B400AFBB
:1002D400214B1B681A68204B1B6822F0F0021A603D
:1002E4001D4B1B681A681C4B1B6842F0A0021A6065
:1002F4001A4B1A68194B1B6812681A60184B1B6852
:100304001A68174B1B6822F0F0021A60154B1B6821
:100314001A68144B1B6822F470621A60114B1B6834
:100324001A68104B1B6842F4E0621A600D4B1B689C
:100334001A680C4B1B6822F470421A60094B1B6844
:100344001A68084B1B6842F4E0421A6000BFBD46BD
:100354005DF8047B704700BF3000002034000020AB
:100364003C0000204000002080B400AF244B1B68F8
:100374001A68234B1B6842F400521A60214B1B6815
:100384001B68204A126823F47F4323F0F0031360B0
:100394001C4B1B681B681B4A126843F4A25343F0AE
:1003A40010031360174B1B681A68164B1B6822F066
:1003B4000F021A60134B1B681A68124B1B6842F039
:1003C40004021A600E4B1B681A680D4B1B6842F43A
:1003D40000421A600A4B1B681A68094B1B6822F416
:1003E40080521A60064B1B681A68054B1B6842F062
:1003F40008021A6000BFBD465DF8047B704700BF69
:10040400900000208C00002080B483B000AF03462D
:10041400FB71134B1B681A68114B1B6822F04002D6
:100424001A6000BF0E4B1B681B6803F08003002B8F
:10043400F8D00C4B1B68FA791A600A4B1B68FA79DE
:100444001A6000BF064B1B681B6803F04003002BB7
:10045400F8D000BF00BF0C37BD465DF8047B704781
:10046400840000208800002080B400AF0C4B1B687F
:100474001A680B4B1B6842F004021A6000BF094B58
:100484001B681B6803F02003002BF8D0064B1B6885
:100494001B68DBB21846BD465DF8047B704700BF9D
:1004A40090000020840000208800002080B582B0E5
:1004B40000AF786006E07B685A1C7A601B781846A7
:1004C400FFF7A2FF7B681B78002BF4D100BF00BFAD
:1004D4000837BD4680BD80B483B000AF00237B6085
:1004E40000237B6002E07B6801337B607B68054A04
:1004F4009342F8D900BF00BF0C37BD465DF8047BBA
:10050400704700BF3F420F0070B50D4D0D4C641B8A
:10051400A4100026A64209D10B4D0C4C00F040F863
:10052400641BA4100026A64205D170BD55F8043BF7
:1005340098470136EEE755F8043B98470136F2E751
:10054400CC050008CC050008CC050008D00500083F
:10055400DFF830D00C480D490D4A002302E0D4588E
:10056400C4500433C4188C42F9D30A4A0A4C0023F9
:1005740001E013600432A242FBD3FFF7C5FFFFF78B
:1005840027FE70470000012000000020A00000208A
:10059400D4050008A0000020BC000020FEE70000F5
:1005A400F8B500BFF8BC08BC9E467047F8B500BF5C
:0805B400F8BC08BC9E4670472C
:1005BC0055534152545F50524954494E470A0D000D
:0405CC00B901000869
:0405D0009501000889
:1005D40000380240043802400838024030380240F3
:1005E40044380240403802400004024004040240FF
:1005F400140402400C04024020040240240402407B
:100604000000024004000240140002400C000240BA
:100614002000024000440140244401402844014099
:100624002C44014010440140144401400C44014056
:1006340018440140344401402044014000E100E0FA
:1006440080E100E000E200E080E200E000E300E09E
:1006540000E400E00044004004440040084400403A
:100664000C4400401044004014440040184400402E
:040000050800055595
:00000001FF
