:020000040800F2
:100000000000012035090008810900088109000865
:10001000810900088109000881090008000000002A
:10002000000000000000000000000000810900083E
:10003000810900080000000081090008810900080A
:100040008109000881090008810900088109000868
:100050008109000881090008810900088109000858
:100060008109000881090008810900088109000848
:100070008109000881090008810900088109000838
:1000800081090008810900088109000800000000BA
:1000900000000000000000000000000081090008CE
:1000A0008109000881090008810900088109000808
:1000B0008109000881090008810900089D060008DF
:1000C00081090008810900088109000881090008E8
:1000D000810900088109000881090008000000006A
:1000E000810900088109000881090008000000005A
:1000F000000000000000000000000000810900086E
:100100000000000081090008810900088109000839
:1001100000000000000000000000000000000000DF
:100120008109000881090008810900088109000887
:10013000810900080000000000000000000000002D
:10014000000000000000000000000000810900081D
:100150008109000881090008810900088109000857
:10016000810900088109000800000000000000006B
:10017000000000000000000000000000000000007F
:1001800000000000810900080000000000000000DD
:0401900081090008D9
:1001940010B5054C237833B9044B13B10448AFF3BD
:1001A40000800123237010BD4800002000000000DF
:1001B4008409000808B5034B1BB103490348AFF396
:1001C400008008BD000000004C00002084090008E5
:1001D40080B584B000AF0023FB70164800F07CFBB0
:1001E4000346BB60144800F077FB03467B6000F0D5
:1001F40029F800F0A1F800F03BF900F037FAFA1CF6
:1002040001236B21D02000F0BDF90023FB6002E044
:10021400FB680133FB60FB68084A9342F8D3084B40
:100224001B6800225A61FA1C01237521D02000F0BA
:10023400EDF9FEE73400002040000020809698008D
:100244002800002080B400AF3A4B1B681A6B394B6E
:100254001B6842F004021A63364B1B681A6B354B59
:100264001B6842F002021A63324B1B681A6B314B53
:100274001B6842F001021A632E4B1B681A682D4B4F
:100284001B6822F480321A602A4B1B681A68294BB7
:100294001B6842F480321A6000BF264B1B681B683F
:1002A40003F40033002BF8D0224B1B689A68214BCF
:1002B4001B6822F003029A601E4B1B689A681D4B50
:1002C4001B6842F001029A6000BF1A4B1B685A6C0B
:1002D400184B1B6842F400325A64164B1B681A6CA4
:1002E400144B1B6842F400321A64124B1B685A6C9C
:1002F400104B1B6842F010025A640E4B1B681A6BB9
:100304000C4B1B6842F400121A630A4B1B681A6BED
:10031400084B1B6842F480021A63064B1B681A6C74
:10032400044B1B6842F400121A6400BFBD465DF81A
:10033400047B70471C00002080B400AF494B1B684D
:100344001A68484B1B6822F0F0021A60454B1B6880
:100354001A68444B1B6842F0A0021A60414B1B68A8
:100364005A68404B1B6822F004025A603D4B1B68DC
:10037400DA683C4B1B6822F0F002DA60394B1B68E8
:100384001A6A384B1B6822F470621A62354B1B6878
:100394001A6A344B1B6842F4E0621A62314B1B68E0
:1003A4001A6A304B1B6822F470421A622D4B1B6888
:1003B4001A6A2C4B1B6842F4E0421A622A4B1B68EF
:1003C4001A68294B1B6822F470421A60264B1B687A
:1003D4001A68254B1B6842F420421A60224B1B68A2
:1003E4005A68214B1B6842F0C0025A601E4B1B68BE
:1003F400DA681D4B1B6822F47042DA601A4B1B68E2
:100404001A6A194B1B6822F070621A62164B1B6839
:100414001A6A154B1B6842F080621A62124B1B6801
:100424001A6A114B1B6822F070421A620E4B1B6849
:100434001A6A0D4B1B6842F080421A620B4B1B6810
:100444004FF080621A60094B1B684FF400525A60E7
:10045400064B1B684FF400525A6100BFBD465DF85D
:10046400047B704720000020240000202800002086
:1004740080B400AF424B1B681A68414B1B6822F4DE
:1004840000421A603E4B1B681A683D4B1B6822F4FD
:1004940000521A603A4B1B681A68394B1B6822F4E5
:1004A40080521A60364B1B681A68354B1B6822F45D
:1004B40000621A60324B1B681A68314B1B6822F0C9
:1004C40080021A602E4B1B681A682D4B1B6822F0A1
:1004D40040021A602A4B1B681A68294B1B6822F0D9
:1004E40020021A60264B1B681A68254B1B6822F0F1
:1004F40010021A60224B1B681A68214B1B6822F0F9
:1005040008021A601E4B1B681A681D4B1B6822F0F8
:1005140002021A601A4B1B685A68194B1B6842F492
:1005240000625A60164B1B685A68154B1B6822F010
:100534003F025A60124B1B685A68114B1B6842F009
:1005440019025A600E4B1B685A680D4B1B6842F423
:10055400C0625A600A4B1B687D22DA61084B1B6833
:1005640018221A62064B1B681A68054B1B6842F076
:1005740001021A6000BFBD465DF8047B704700BFEE
:100584002C00002080B485B000AF3A601A460346C0
:10059400FB710B46BB7113467B71194AFB791370CF
:1005A400174ABB7953700023BB600BE0BB683A6801
:1005B4001A44BB681178124A13440A469A70BB68FD
:1005C4000133BB607A79BB689A42EFD80C4A7B79D5
:1005D40013730B4B00225A730A4B1B681A68094B9E
:1005E4001B6842F480721A60074B1B684FF000428C
:1005F4001A6000BF1437BD465DF8047B704700BF26
:10060400880000202C0000200000002080B485B069
:1006140000AF3A601A460346FB710B46BB711346A2
:100624007B710F4AFB7913700D4ABB7953700C4AE6
:100634007B7913730A4B01225A730A4B1B681A689D
:10064400084B1B6842F480721A60074B1B684FF01A
:1006540000421A6000BF1437BD465DF8047B704742
:10066400880000202C0000200000002080B400AF8F
:10067400074B1B684FF000421A60064B1B684FF093
:1006840000421A6000BFBD465DF8047B704700BF9E
:100694000C0000200000002080B485B000AF0023CF
:1006A400FB600023BB6000237B60834B1B684FF01F
:1006B40000421A60814B1B685B69BB607F4B1B68FF
:1006C4009B697B60BB6803F00103002B32D07C4B39
:1006D4001B6801337A4A13607A4B00221A707A4BF2
:1006E4005B7B002B05D1784B1A78744B1B681A611D
:1006F400CDE0754B5B7B012B40F0C980734B1B78BD
:10070400002B08D1704B1A786C4B1B681A616F4B25
:1007140001221A70BBE06C4B1B7843F00103DAB280
:10072400664B1B681A61694B00221A70664B0222E1
:100734005A73ACE0BB6803F00203002B18D05F4B84
:100744001B685B69BB605D4B1B689B697B605C4B92
:100754005B6801335A4A5360BB6803F08003002B83
:1007640000F09580584B5A78544B1B681A618EE000
:10077400BB6803F08003002B40D0514B9B680133CE
:100784004F4A9360504B5B7B012B11D14B4B1B6841
:100794001A684A4B1B6842F480721A60484B1B6A01
:1007A4000133474A1362454B1B6800221A616EE00D
:1007B400454B1A7B434B1B789A420DD9414B1B780E
:1007C4005A1CD1B23F4A11701A463F4B13449A78CF
:1007D4003A4B1B681A615AE0384B1B681A68374B4E
:1007E4001B6842F400721A60344B1B6800221A61C1
:1007F400334BDB680133324AD36048E0BB6803F013
:100804004003002B42D02E4B1B6901332C4A136149
:100814002D4B1A7B2B4B1B789A4238D9274B1B68DC
:100824001869284B1B785A1CD1B2264A11701946F4
:10083400C2B2254B0B449A70234B1A7B214B1B7875
:100844009A4215D81D4B1B681A681C4B1B6822F46E
:1008540080621A60194B1B681A68184B1B6842F4B3
:1008640000721A60164B9B690133154A93610EE0BE
:10087400134BDB690133124AD361104B1B681A68AE
:100884000E4B1B6842F480621A6000E0FEE70C4BDA
:100894005B6901330A4A53610D4B1B684FF00042F8
:1008A4001A600C4B1B684FF000421A6000BF1437EB
:1008B400BD465DF8047B7047040000202C00002036
:1008C40064000020FC00002088000020FD000020BF
:1008D4000C00002000000020034613F8012B002A1E
:1008E400FBD1181A0138704770B50D4D0D4C641BBF
:1008F400A4100026A64209D10B4D0C4C00F040F880
:10090400641BA4100026A64205D170BD55F8043B13
:1009140098470136EEE755F8043B98470136F2E76D
:100924009C0900089C0900089C090008A00900080B
:10093400DFF830D00C480D490D4A002302E0D458AA
:10094400C4500433C4188C42F9D30A4A0A4C002315
:1009540001E013600432A242FBD3FFF7C5FFFFF7A7
:1009640037FC7047000001200000002048000020F0
:10097400A40900084800002000010020FEE7000050
:10098400F8B500BFF8BC08BC9E467047F8B500BF78
:08099400F8BC08BC9E46704748
:04099C00B901000895
:0409A00095010008B5
:1009A40000E100E080E100E000E200E080E200E03D
:1009B40000E300E000E400E00010014000380240E1
:1009C40000000240000402400008024000540040BD
:1009D400006402407363686F6F6C206F660D0A00D9
:0809E4006C696E75780D0A00C4
:0400000508000935B1
:00000001FF
