:020000040800F2
:100000000000012055070008A1070008A10700080B
:10001000A1070008A1070008A107000800000000D0
:10002000000000000000000000000000A107000820
:10003000A107000800000000A1070008A1070008B0
:10004000A1070008A1070008A1070008A1070008F0
:10005000A1070008A1070008A1070008A1070008E0
:10006000A1070008A1070008A1070008A1070008D0
:10007000A1070008A1070008A1070008A1070008C0
:10008000A1070008A1070008A10700080000000060
:10009000000000000000000000000000A1070008B0
:1000A000A1070008A1070008A1070008A107000890
:1000B000A1070008A1070008A1070008A107000880
:1000C000A1070008A1070008A1070008A107000870
:1000D000A1070008A1070008A10700080000000010
:1000E000A1070008A1070008A10700080000000000
:1000F000000000000000000000000000A107000850
:1001000000000000A1070008A1070008A1070008DF
:1001100000000000000000000000000000000000DF
:10012000A1070008A1070008A1070008A10700080F
:10013000A10700080000000000000000000000000F
:10014000000000000000000000000000A1070008FF
:10015000A1070008A1070008A1070008A1070008DF
:10016000A1070008A107000800000000000000002F
:10017000000000000000000000000000000000007F
:1001800000000000A10700080000000000000000BF
:04019000A1070008BB
:1001940010B5054C237833B9044B13B10448AFF3BD
:1001A40000800123237010BD4000002000000000E7
:1001B400A407000808B5034B1BB103490348AFF378
:1001C400008008BD0000000044000020A4070008CF
:1001D40080B582B000AF0E4800F08EFA03467B6013
:1001E4000C4800F089FA03463B6000F015F800F073
:1001F40085F800F0FFF800F063F9054B79681846BC
:1002040000F02EFA034B3968184600F029FAFEE78D
:100214002C0000203800002080B400AF364B1B684F
:100224001A6B354B1B6842F004021A63324B1B688D
:100234001A6B314B1B6842F002021A632E4B1B6887
:100244001A6B2D4B1B6842F001021A632A4B1B6880
:100254001A68294B1B6822F480321A60264B1B68EB
:100264001A68254B1B6842F480321A6000BF224B87
:100274001B681B6803F40033002BF8D01E4B1B686B
:100284009A681D4B1B6822F003029A601A4B1B6884
:100294009A68194B1B6842F001029A6000BF164B22
:1002A4001B685A6C144B1B6842F400325A64124B9C
:1002B4001B681A6C104B1B6842F400321A640E4B14
:1002C4001B685A6C0C4B1B6842F010025A640A4BB0
:1002D4001B681A6B084B1B6842F400121A63064B26
:1002E4001B681A6B044B1B6842F480021A6300BF3C
:1002F400BD465DF8047B70471C00002080B400AF4D
:100304003A4B1B681A68394B1B6822F0F0021A60DA
:10031400364B1B681A68354B1B6842F0A0021A6002
:10032400324B1B685A68314B1B6822F004025A6036
:100334002E4B1B68DA682D4B1B6822F0F002DA6042
:100344002A4B1B681A6A294B1B6822F470621A62D2
:10035400264B1B681A6A254B1B6842F4E0621A623A
:10036400224B1B681A6A214B1B6822F470421A62E2
:100374001E4B1B681A6A1D4B1B6842F4E0421A624A
:100384001B4B1B681A681A4B1B6822F470421A60D4
:10039400174B1B681A68164B1B6842F420421A60FC
:1003A400134B1B681A6A124B1B6822F070621A62A4
:1003B4000F4B1B681A6A0E4B1B6842F0E0621A620C
:1003C4000B4B1B681A6A0A4B1B6822F070421A62B4
:1003D400074B1B681A6A064B1B6842F0E0421A621C
:1003E40000BFBD465DF8047B704700BF20000020BD
:1003F4002400002080B400AF304B1B68DA682F4B18
:100404001B6842F40052DA602C4B1B689B682B4A31
:10041400126823F47F4323F0F0039360274B1B6897
:100424009B68264A126843F4A25343F01003936076
:10043400224B1B689A68214B1B6822F00F029A60BA
:100444001E4B1B689A681D4B1B6842F004029A609D
:100454001A4B1B68DA68194B1B6842F40042DA60D5
:10046400164B1B68DA68154B1B6822F48052DA605D
:10047400124B1B68DA68114B1B6842F00802DA6001
:100484000E4B1B685A690D4B1B6842F080025A617F
:100494000A4B1B685A69094B1B6822F008025A610F
:1004A400064B1B681A68054B1B6822F040021A6051
:1004B40000BFBD465DF8047B704700BF18000020F4
:1004C40080B400AF644B1B68D3F8B820624B1B6840
:1004D40022F00102C3F8B82000BF5F4B1B68D3F8B9
:1004E400B83003F00103002BF7D15B4B1B68D3F842
:1004F400B820594B1B6822F06062C3F8B820564BF1
:100504001B68D3F8B820544B1B6842F00062C3F850
:10051400B820514B1B68D3F8B8204F4B1B6822F00E
:100524002002C3F8B8204C4B1B68D3F8B8204A4BC0
:100534001B6822F44032C3F8B820474B1B68D3F839
:10054400CC20454B1B6822F00402C3F8CC20424B5C
:100554001B68D3F8B820404B1B6822F0C072C3F864
:10056400B8203D4B1B68D3F8B8203B4B1B6822F4E2
:10057400C002C3F8B820384B1B68D3F8B820364BF8
:100584001B6822F40022C3F8B820334B1B68D3F84D
:10059400B820314B1B6822F48022C3F8B8202E4BBC
:1005A4001B68D3F8B8202C4B1B6822F40042C3F814
:1005B400B820294B1B68D3F8B820274B1B6822F4BA
:1005C400C042C3F8B820244B1B68D3F8B820224B90
:1005D4001B6822F4C052C3F8B8201F4B1B68D3F821
:1005E400B8201D4B1B6842F48062C3F8B8201A4B34
:1005F4001B68D3F8B820184B1B6822F40072C3F8A8
:10060400B820164B1B681A1D134B1B68C3F8C02077
:10061400114B1B68D3F8B8200F4B1B6822F480726F
:10062400C3F8B8200C4B1B68D3F8B8200A4B1B68DE
:1006340022F0C002C3F8B820074B1B68D3F8B820D7
:10064400054B1B6842F04002C3F8B82000BFBD460A
:100654005DF8047B704700BF2800002018000020CC
:1006640080B483B000AF78603960214B1B681A688E
:100674001F4B1B6822F040021A601E4B1B68D3F804
:10068400B8201C4B1B6822F00102C3F8B82000BF3D
:10069400184B1B68D3F8B83003F00103002BF7D1D3
:1006A400144B1B687A68C3F8C420124B1B683A6861
:1006B400C3F8BC200F4B1B68D3F8B8200D4B1B6844
:1006C40042F00102C3F8B82000BF0A4B1B685B6804
:1006D40003F00063002BF8D0064B1B684FF0406218
:1006E400DA6000BF0C37BD465DF8047B704700BF7D
:1006F4001800002028000020034613F8012B002ACC
:10070400FBD1181A0138704770B50D4D0D4C641BA0
:10071400A4100026A64209D10B4D0C4C00F040F861
:10072400641BA4100026A64205D170BD55F8043BF5
:1007340098470136EEE755F8043B98470136F2E74F
:10074400BC070008BC070008BC070008C007000875
:10075400DFF830D00C480D490D4A002302E0D4588C
:10076400C4500433C4188C42F9D30A4A0A4C0023F7
:1007740001E013600432A242FBD3FFF7C5FFFFF789
:1007840027FD7047000001200000002040000020E9
:10079400C4070008400000205C000020FEE70000C1
:1007A400F8B500BFF8BC08BC9E467047F8B500BF5A
:0807B400F8BC08BC9E4670472A
:0407BC00B901000877
:0407C0009501000897
:1007C40000E100E080E100E000E200E080E200E01F
:1007D40000E300E000E400E00010014000380240C3
:1007E4000000024000040240006402407363686F2A
:1007F4006F6C206F660D0A006C696E75780D0A00C7
:040000050800075593
:00000001FF
