:020000040800F2
:100000000000012035050008810500088105000871
:100010008105000881050008810500080000000036
:100020000000000000000000000000008105000842
:100030008105000800000000810500088105000816
:100040008105000881050008810500088105000878
:100050008105000881050008810500088105000868
:100060008105000881050008810500088105000858
:100070008105000881050008810500088105000848
:1000800081050008810500088105000800000000C6
:1000900000000000000000000000000081050008D2
:1000A0008105000881050008810500088105000818
:1000B0008105000881050008810500088105000808
:1000C00081050008810500088105000881050008F8
:1000D0008105000881050008810500080000000076
:1000E0008105000881050008810500080000000066
:1000F0000000000000000000000000008105000872
:100100000000000081050008810500088105000845
:1001100000000000000000000000000000000000DF
:100120008105000881050008810500088105000897
:100130008105000800000000000000000000000031
:100140000000000000000000000000008105000821
:100150008105000881050008810500088105000867
:100160008105000881050008000000000000000073
:10017000000000000000000000000000000000007F
:1001800000000000810500080000000000000000E1
:0401900081050008DD
:1001940010B5054C237833B9044B13B10448AFF3BD
:1001A40000800123237010BD88000020000000009F
:1001B4008405000808B5034B1BB103490348AFF39A
:1001C400008008BD000000008C00002084050008A9
:1001D40080B500AF00F009F800F05AF800F084F898
:1001E40000F0E0F800F04CF9FCE780B400AF244BD9
:1001F4001B681A68224B1B6842F004021A60204BE9
:100204001B681A681E4B1B6842F002021A601D4BE1
:100214001B681A681B4B1B6822F480321A60194B46
:100224001B681A68174B1B6842F480321A6000BFBF
:10023400144B1B681B6803F40033002BF8D0124BDB
:100244001B681A68104B1B6822F003021A600E4BDD
:100254001B681A680C4B1B6842F001021A6000BF4D
:10026400094B1B681B68094B1B681A68074B1B6802
:1002740042F400321A6000BFBD465DF8047B70474B
:100284000C000020000000200800002010000020C6
:1002940080B400AF104B1B68104A1A60104B1B68E7
:1002A40000221A600F4B1B6800221A600D4B1B685A
:1002B4001A680C4B1B6842F004021A60094B1B6855
:1002C4001A68084B1B6842F001021A6000BFBD4661
:1002D4005DF8047B704700BF480000209F2526007E
:1002E4004C0000204400002080B400AF264B1B6863
:1002F4001A68254B1B6842F080021A60224B1A6868
:10030400214B1B6812681A601F4B1A681E4B1B682E
:1003140012681A601C4B1A681B4B1B6812681A601F
:100324001A4B1B681A68194B1B6822F001021A60E9
:10033400174B1B681A68164B1B6822F001021A60DF
:10034400144B1B681A68134B1B6842F001021A60B5
:10035400114B1B6800221A60104B1B6840F24712B5
:100364001A600F4B1B684FF6FF721A60064B1B682E
:100374001A68054B1B6842F001021A6000BFBD46B3
:100384005DF8047B704700BF500000206800002027
:100394006000002064000020540000205800002069
:1003A4005C00002080B400AF154B1B684FF08062E6
:1003B4001A60144B1B681A68124B1B6842F0010246
:1003C4001A60114B1B684FF400521A600F4B1B68E4
:1003D4001A680E4B1B6842F001021A600C4B1B6832
:1003E4004FF400521A600B4B1B681A68094B1B68C8
:1003F40042F001021A6000BFBD465DF8047B7047FD
:100404001C000020340000202000002038000020C0
:10041400240000203C00002080B400AF00BF164B35
:100424001B681B6803F00103002BF8D0124B1B68F8
:100434001A68114B1B6822F001021A600F4B1B68EB
:100444001B6803F00103002B08D00C4B1B681A68CF
:100454000A4B1B6822F001021A6007E0074B1B6875
:100464001A68064B1B6842F001021A6000BFBD46C1
:100474005DF8047B704700BF600000203C00002052
:1004840080B400AF00BF164B1B681B6803F48033B5
:10049400002BF8D0124B1B681A68114B1B6822F40E
:1004A40080321A600F4B1B681B6803F40053002B47
:1004B40008D00C4B1B681A680A4B1B6822F40052C4
:1004C4001A6007E0074B1B681A68064B1B6842F466
:1004D40000521A6000BFBD465DF8047B704700BF40
:1004E400440000202400002070B50D4D0D4C641B09
:1004F400A4100026A64209D10B4D0C4C00F040F884
:10050400641BA4100026A64205D170BD55F8043B17
:1005140098470136EEE755F8043B98470136F2E771
:100524009C0500089C0500089C050008A00500081F
:10053400DFF830D00C480D490D4A002302E0D458AE
:10054400C4500433C4188C42F9D30A4A0A4C002319
:1005540001E013600432A242FBD3FFF7C5FFFFF7AB
:1005640037FE7047000001200000002088000020B2
:10057400A405000888000020A4000020FEE7000075
:10058400F8B500BFF8BC08BC9E467047F8B500BF7C
:08059400F8BC08BC9E4670474C
:04059C00B901000899
:0405A00095010008B9
:1005A4000038024004380240083802403038024023
:1005B40044380240503802401038024000080240DB
:1005C40004080240140802401008024008080240CF
:1005D4000C080240000402400404024014040240D7
:1005E4000C04024010E000E014E000E018E000E039
:1005F4000044014024440140284401402C4401406B
:1006040010440140144401400C44014000E100E066
:1006140080E100E000E200E080E200E000E300E0CE
:0806240000E400E000EE00E03C
:0400000508000535B5
:00000001FF
