:020000040800F2
:1000000000000120B90600080507000805070008E0
:1000100005070008050700080507000800000000A4
:1000200000000000000000000000000005070008BC
:100030000507000800000000050700080507000884
:100040000507000805070008050700080507000860
:100050000507000805070008050700080507000850
:100060000507000805070008050700080507000840
:100070000507000805070008050700080507000830
:100080000507000805070008050700080000000034
:10009000000000000000000000000000050700084C
:1000A0000507000805070008050700080507000800
:1000B00005070008050700080507000805070008F0
:1000C00005070008050700080507000805070008E0
:1000D00005070008050700080507000800000000E4
:1000E00005070008050700080507000800000000D4
:1000F00000000000000000000000000005070008EC
:1001000000000000050700080507000805070008B3
:1001100000000000000000000000000000000000DF
:10012000050700080507000805070008050700087F
:1001300005070008000000000000000000000000AB
:10014000000000000000000000000000050700089B
:10015000050700080507000805070008050700084F
:100160000507000805070008000000000000000067
:10017000000000000000000000000000000000007F
:10018000000000000507000800000000000000005B
:040190000507000857
:1001940010B5054C237833B9044B13B10448AFF3BD
:1001A40000800123237010BD08010020000000001E
:1001B4000807000808B5034B1BB103490348AFF314
:1001C400008008BD000000000C01002008070008A2
:1001D40080B582B000AF0E4800F040FA03467B6061
:1001E4000C4800F03BFA03463B6000F015F800F0C1
:1001F40081F800F0CFF800F039F9054B796818461A
:1002040000F0E0F9034B3968184600F0DBF9FEE72B
:10021400C8000020E800002080B400AF304B1B6809
:100224001A682F4B1B6842F004021A602C4B1B689F
:100234001A682B4B1B6842F002021A60284B1B6899
:100244001A68274B1B6842F001021A60254B1B6891
:100254001A68244B1B6822F480321A60214B1B68F5
:100264001A68204B1B6842F480321A6000BF1D4B91
:100274001B681B6803F40033002BF8D01A4B1B686F
:100284001A68194B1B6822F003021A60164B1B688C
:100294001A68154B1B6842F001021A6000BF124B2A
:1002A4001B681B68114B1B681A68104B1B6842F4CF
:1002B40000321A600E4B1B681A680D4B1B6842F41F
:1002C40000321A60064B1B681A68054B1B6842F41F
:1002D40000121A6000BFBD465DF8047B704700BF82
:1002E4000C00002000000020080000201000002066
:1002F4001400002080B400AF224B1B681A68214B05
:100304001B6822F0F0021A601E4B1B681A681D4B12
:100314001B6842F0A0021A601B4B1B681A681A4B38
:100324001B6822F004021A60184B1B681A68174BEA
:100334001B6822F0F0021A60154B1B681A68144BF4
:100344001B6822F470621A60114B1B681A68104B08
:100354001B6842F4E0621A600D4B1B681A680C4B70
:100364001B6822F470421A60094B1B681A68084B18
:100374001B6842F4E0421A6000BFBD465DF8047B8E
:10038400704700BF30000020340000203C000020F3
:100394004000002080B400AF304B1B681A682F4B1C
:1003A4001B6842F400521A602D4B1B681B682C4AD0
:1003B400126823F47F4323F0F0031360284B1B6877
:1003C4001B68274A126843F4A25343F010031360D6
:1003D400234B1B681A68224B1B6822F00F021A6019
:1003E4001F4B1B681A681E4B1B6842F004021A60FC
:1003F4001A4B1B681A68194B1B6842F400421A60B6
:10040400164B1B681A68154B1B6822F480521A603D
:10041400124B1B681A68114B1B6842F008021A60E1
:10042400104B1B681A680F4B1B6842F080021A605D
:100434000C4B1B681A680B4B1B6822F008021A60ED
:10044400094B1B681A68084B1B6822F040021A60AB
:1004540000BFBD465DF8047B704700BF90000020DC
:100464008C000020980000208400002080B400AF9D
:10047400504B1B681A684F4B1B6822F001021A602C
:1004840000BF4C4B1B681B6803F00103002BF8D121
:10049400484B1B681A68474B1B6822F060621A605D
:1004A400444B1B681A68434B1B6842F000621A6095
:1004B400404B1B681A683F4B1B6822F020021A60ED
:1004C4003C4B1B681A683B4B1B6822F440321A6091
:1004D400394B1B681A68384B1B6822F004021A60F7
:1004E400344B1B681A68334B1B6822F0C0721A60C5
:1004F400304B1B681A682F4B1B6822F4C0021A6029
:100504002C4B1B681A682B4B1B6822F400221A60C0
:10051400284B1B681A68274B1B6822F480221A6038
:10052400244B1B681A68234B1B6822F400421A6090
:10053400204B1B681A681F4B1B6822F4C0421A60C8
:100544001C4B1B681A681B4B1B6822F4C0521A60B0
:10055400184B1B681A68174B1B6842F480621A60B8
:10056400144B1B681A68134B1B6822F400721A6040
:10057400124B1A68124B1B681A600E4B1B681A68E0
:100584000C4B1B6822F480721A600A4B1B681A68B1
:10059400084B1B6822F0C0021A60064B1B681A68DD
:1005A400044B1B6842F040021A6000BFBD465DF870
:1005B400047B7047B0000020C400002088000020A5
:1005C400B800002080B483B000AF786039601D4B60
:1005D4001B681A681B4B1B6822F040021A601A4BF6
:1005E4001B681A68184B1B6822F001021A6000BFCE
:1005F400154B1B681B6803F00103002BF8D1134B48
:100604001B687A681A60124B1B683A681A600E4BB2
:100614001B681A680C4B1B6842F001021A6000BF89
:100624000C4B1B681B6803F40013002BF8D00A4B17
:100634001B684FF440121A6000BF0C37BD465DF8CA
:10064400047B704784000020B0000020BC00002020
:10065400B4000020A4000020AC000020034613F8DE
:10066400012B002AFBD1181A0138704770B50D4DC3
:100674000D4C641BA4100026A64209D10B4D0C4C52
:1006840000F040F8641BA4100026A64205D170BDFA
:1006940055F8043B98470136EEE755F8043B984774
:1006A4000136F2E7200700082007000820070008A9
:1006B40024070008DFF830D00C480D490D4A002308
:1006C40002E0D458C4500433C4188C42F9D30A4A03
:1006D4000A4C002301E013600432A242FBD3FFF76B
:1006E400C5FFFFF775FD70470000012000000020E2
:1006F4000801002028070008080100202401002028
:10070400FEE70000F8B500BFF8BC08BC9E46704781
:0C071400F8B500BFF8BC08BC9E4670475A
:04072000B901000813
:040724009501000833
:10072800003802400438024008380240303802409D
:1007380044380240403802400004024004040240A9
:10074800140402400C040240200402402404024025
:100758000000024004000240140002400C00024065
:100768002000024000440140244401402844014044
:100778002C44014010440140144401400C44014001
:1007880018440140344401402044014000E100E0A5
:1007980080E100E000E200E080E200E000E300E049
:1007A80000E400E0004400400444004008440040E5
:1007B8000C440040104400401444004018440040D9
:1007C8000060024004600240086002400C60024081
:1007D800A0600240A4600240A8600240AC600240F1
:1007E800B0600240B46002400D0A7363686F6F6CBA
:1007F800206F66206C696E757820446861726D613F
:1008080070757269000000000D0A41524D20434F77
:10081800525445582053544D3332462050524F4578
:0808280053534F520D0A00006A
:04000005080006B930
:00000001FF
