:020000040800F2
:1000000000000120210500086D0500086D050008AD
:100010006D0500086D0500086D0500080000000072
:100020000000000000000000000000006D05000856
:100030006D050008000000006D0500086D05000852
:100040006D0500086D0500086D0500086D050008C8
:100050006D0500086D0500086D0500086D050008B8
:100060006D0500086D0500086D0500086D050008A8
:100070006D0500086D0500086D0500086D05000898
:100080006D0500086D0500086D0500080000000002
:100090000000000000000000000000006D050008E6
:1000A0006D0500086D0500086D0500086D05000868
:1000B0006D0500086D0500086D0500086D05000858
:1000C0006D0500086D0500086D0500086D05000848
:1000D0006D0500086D0500086D05000800000000B2
:1000E0006D0500086D0500086D05000800000000A2
:1000F0000000000000000000000000006D05000886
:10010000000000006D0500086D0500086D05000881
:1001100000000000000000000000000000000000DF
:100120006D0500086D0500086D0500086D050008E7
:100130006D05000800000000000000000000000045
:100140000000000000000000000000006D05000835
:100150006D0500086D0500086D0500086D050008B7
:100160006D0500086D05000800000000000000009B
:10017000000000000000000000000000000000007F
:10018000000000006D0500080000000000000000F5
:040190006D050008F1
:1001940010B5054C237833B9044B13B10448AFF3BD
:1001A40000800123237010BD6C00002000000000BB
:1001B4007005000808B5034B1BB103490348AFF3AE
:1001C400008008BD000000007000002070050008D9
:1001D40080B582B000AF00F025F800F077F800F0A9
:1001E400E5F819237B6008E00D4B1B687A681A60F8
:1001F40000F024F97B6801337B607B68322BF3D9F0
:1002040032237B6008E0064B1B687A681A6000F0B2
:1002140015F97B68013B7B607B68182BF3D8E0E71A
:100224004C00002080B400AF244B1B681A68234B99
:100234001B6842F004021A60204B1B681A681F4BAB
:100244001B6842F002021A601D4B1B681A681C4BA3
:100254001B6822F480321A60194B1B681A68184B09
:100264001B6842F480321A6000BF154B1B681B6880
:1002740003F40033002BF8D0124B1B681A68114B9F
:100284001B6822F003021A600E4B1B681A680D4BA0
:100294001B6842F001021A6000BF0A4B1B681B680E
:1002A400094B1B681A68084B1B6842F400321A6039
:1002B40000BFBD465DF8047B704700BF0C00002002
:1002C40000000020080000201000002080B400AFCF
:1002D4002E4B1B681A682D4B1B6842F080021A6073
:1002E4002A4B1A68294B1B6812681A60274B1A6834
:1002F400264B1B6812681A60244B1A68234B1B6830
:1003040012681A60224B1B681A68214B1B6822F082
:1003140001021A601F4B1B681A681E4B1B6842F0CF
:1003240001021A601C4B1B6800221A601B4B1B68DD
:100334004FF47A721A601A4B1B684FF4FA721A60FF
:10034400184B1B681A68174B1B6822F070021A605E
:10035400144B1B681A68134B1B6842F060021A6046
:10036400114B1B681A68104B1B6842F001021A609B
:10037400064B1B681A68054B1B6842F001021A60A1
:1003840000BFBD465DF8047B704700BF2C00002011
:100394003C000020400000203000002034000020F9
:1003A40038000020480000205000002080B400AF36
:1003B4001D4B1B681A681C4B1B6822F400321A6020
:1003C400194B1B681A68184B1B6842F400321A60F8
:1003D400164B1A68154B1B6812681A60144B1B687D
:1003E4001A68134B1B6842F480721A60114B1B6825
:1003F4001A68104B1B6842F400321A600E4B1B68DB
:100404001A680D4B1B6822F003021A600A4B1B6822
:100414001A68094B1B6842F003021A6000BFBD460C
:100424005DF8047B704700BF140000201800002012
:100434001C000020200000202800002080B483B08D
:1004440000AF00237B6000237B6002E07B68013304
:100454007B607B68044A9342F8D900BF00BF0C3725
:10046400BD465DF8047B70473F420F0080B400AF87
:1004740000BF164B1B681B6803F00103002BF8D068
:10048400124B1B681A68114B1B6822F001021A6098
:100494000F4B1B681B6803F48073002B08D00C4BB4
:1004A4001B681A680A4B1B6822F480721A6007E002
:1004B400074B1B681A68064B1B6842F480721A606B
:1004C40000BFBD465DF8047B704700BF3C000020C0
:1004D4001C00002070B50D4D0D4C641BA4100026AB
:1004E400A64209D10B4D0C4C00F040F8641BA4103B
:1004F4000026A64205D170BD55F8043B9847013645
:10050400EEE755F8043B98470136F2E78805000802
:1005140088050008880500088C050008DFF830D03D
:100524000C480D490D4A002302E0D458C45004334A
:10053400C4188C42F9D30A4A0A4C002301E0136020
:100544000432A242FBD3FFF7C5FFFFF741FE704719
:1005540000000120000000206C000020900500082D
:100564006C00002088000020FEE70000F8B500BF02
:10057400F8BC08BC9E467047F8B500BFF8BC08BC80
:040584009E467047D8
:04058800B9010008AD
:04058C0095010008CD
:100590000038024004380240083802403038024037
:1005A00044380240000402400404024014040240A3
:1005B0000C04024020040240240402400044014094
:1005C00024440140284401402C440140104401408F
:1005D000144401400C44014018440140344401409B
:1005E0002044014000E100E080E100E000E200E0A2
:0C05F00080E200E000E300E000E400E036
:0400000508000521C9
:00000001FF
