:020000040800F2
:1000000000000120C90B0008150C0008150C0008A1
:10001000150C0008150C0008150C00080000000065
:10002000000000000000000000000000150C0008A7
:10003000150C000800000000150C0008150C000845
:10004000150C0008150C0008150C0008150C00080C
:10005000150C0008150C0008150C0008150C0008FC
:10006000150C0008150C0008150C0008150C0008EC
:10007000150C0008150C0008150C0008150C0008DC
:10008000150C0008150C0008150C000800000000F5
:10009000000000000000000000000000150C000837
:1000A000150C0008150C0008150C0008150C0008AC
:1000B000150C0008150C0008150C0008150C00089C
:1000C000150C0008150C0008150C0008150C00088C
:1000D000150C0008150C0008150C000800000000A5
:1000E000150C0008150C0008150C00080000000095
:1000F000000000000000000000000000150C0008D7
:1001000000000000150C0008150C0008150C000874
:1001100000000000000000000000000000000000DF
:10012000150C0008150C0008150C0008150C00082B
:10013000150C000800000000000000000000000096
:10014000000000000000000000000000150C000886
:10015000150C0008150C0008150C0008150C0008FB
:10016000150C0008150C000800000000000000003D
:10017000000000000000000000000000000000007F
:1001800000000000150C0008000000000000000046
:04019000150C000842
:1001A00010B5054C237833B9044B13B10448AFF3B1
:1001B00000800123237010BD940000200000000087
:1001C0001015000808B5034B1BB103490348AFF3F2
:1001D000008008BD000000009800002010150008F5
:1001E00080B582B000AF00F02DF800F0A5F800F067
:1001F0002FF900F093F901230F4A6B21D02000F072
:100200000FFA00F0D1FB01230B4A7521D02000F03A
:1002100073FA094B1B78682B03D1084800F032FCB5
:1002200002E0074800F02EFC00F08AFB00F010FB13
:1002300000F03DFCF8E700BFB000002028150008E2
:100240004015000880B400AF3A4B1B681A6B394B5D
:100250001B6842F004021A63364B1B681A6B354B5D
:100260001B6842F002021A63324B1B681A6B314B57
:100270001B6842F001021A632E4B1B681A682D4B53
:100280001B6822F480321A602A4B1B681A68294BBB
:100290001B6842F480321A6000BF264B1B681B6843
:1002A00003F40033002BF8D0224B1B689A68214BD3
:1002B0001B6822F003029A601E4B1B689A681D4B54
:1002C0001B6842F001029A6000BF1A4B1B685A6C0F
:1002D000184B1B6842F400325A64164B1B681A6CA8
:1002E000144B1B6842F400321A64124B1B685A6CA0
:1002F000104B1B6842F010025A640E4B1B681A6BBD
:100300000C4B1B6842F400121A630A4B1B681A6BF1
:10031000084B1B6842F480021A63064B1B681A6C78
:10032000044B1B6842F400121A6400BFBD465DF81E
:10033000047B70471C00002080B400AF424B1B6858
:100340001A68414B1B6822F0F0021A603E4B1B6892
:100350001A683D4B1B6842F0A0021A603A4B1B68BA
:100360005A68394B1B6822F00C025A60364B1B68E6
:10037000DA68354B1B6822F0F002DA60324B1B68FA
:100380001A6A314B1B6822F470621A622E4B1B688A
:100390001A6A2D4B1B6842F4E0621A622A4B1B68F2
:1003A0001A6A294B1B6822F470421A62264B1B689A
:1003B0001A6A254B1B6842F4E0421A62234B1B6801
:1003C0001A68224B1B6822F470421A601F4B1B688C
:1003D0001A681E4B1B6842F420421A601B4B1B68B4
:1003E0005A681A4B1B6842F0C0025A60174B1B68D0
:1003F000DA68164B1B6822F47042DA60134B1B68F4
:100400001A6A124B1B6822F070621A620F4B1B684B
:100410001A6A0E4B1B6842F080621A620B4B1B6813
:100420001A6A0A4B1B6822F070421A62074B1B685B
:100430001A6A064B1B6842F080421A6200BFBD4632
:100440005DF8047B704700BF2000002024000020DE
:1004500080B400AF304B1B68DA682F4B1B6842F446
:100460000052DA602C4B1B689B682B4A126823F4FD
:100470007F4323F0F0039360274B1B689B68264A59
:10048000126843F4A25343F010039360224B1B689D
:100490009A68214B1B6822F00F029A601E4B1B6862
:1004A0009A681D4B1B6842F004029A601A4B1B6845
:1004B000DA68194B1B6842F40042DA60164B1B687D
:1004C000DA68154B1B6822F48052DA60124B1B6805
:1004D000DA68114B1B6842F00802DA600E4B1B68A9
:1004E0005A690D4B1B6842F080025A610A4B1B6827
:1004F0005A69094B1B6822F008025A61064B1B68B7
:100500001A68054B1B6822F040021A6000BFBD4606
:100510005DF8047B704700BF1800002080B400AF76
:100520003E4B1B681A683D4B1B6822F400421A6060
:100530003A4B1B681A68394B1B6822F400521A6048
:10054000364B1B681A68354B1B6822F480521A60C0
:10055000324B1B681A68314B1B6842F400621A6008
:100560002E4B1B681A682D4B1B6822F080021A6004
:100570002A4B1B681A68294B1B6822F040021A603C
:10058000264B1B681A68254B1B6822F020021A6054
:10059000224B1B681A68214B1B6822F010021A605C
:1005A0001E4B1B681A681D4B1B6822F008021A605C
:1005B0001A4B1B681A68194B1B6822F002021A605A
:1005C000164B1B685A68154B1B6842F400625A6050
:1005D000124B1B685A68114B1B6822F03F025A608D
:1005E0000E4B1B685A680D4B1B6842F019025A608B
:1005F0000A4B1B687D22DA61084B1B6818221A62BD
:10060000064B1B681A68054B1B6842F001021A6012
:1006100000BFBD465DF8047B704700BF2800002086
:1006200080B485B000AF3A601A460346FB710B46B2
:10063000BB7113467B712F4B1B681A682D4B1B68CF
:1006400042F480721A6000BF2A4B1B685B6903F09A
:100650000103002BF8D0274B1B689B69FB60254BDF
:100660001B68FA791A6100BF224B1B685B6903F0B3
:100670008203002BF8D01F4B1B689B69FB601D4B4E
:100680001B68BA791A6100BF1A4B1B685B6903F0DB
:100690008003002BF8D0174B1B689B69FB6000237D
:1006A000BB6015E0BB683A6813441A78114B1B68AD
:1006B0001A6100BF0F4B1B685B6903F08003002BBE
:1006C000F8D00C4B1B689B69FB60BB680133BB60B7
:1006D0007A79BB689A42E5D8064B1B681A68054BC5
:1006E0001B6842F400721A6000BF1437BD465DF803
:1006F000047B70472800002080B485B000AF3A60CA
:100700001A460346FB710B46BB7113467B714F4B78
:100710001B681A684D4B1B6842F480721A6000BF58
:100720004A4B1B685B6903F00103002BF8D0474B71
:100730001B689B69FB60454B1B68FA791A6100BF17
:10074000424B1B685B6903F08203002BF8D03F4BE0
:100750001B689B69FB603D4B1B68BA791A6100BF3F
:100760003A4B1B685B6903F08003002BF8D0374BD2
:100770001B689B69FB60354B1B681A68334B1B6811
:1007800042F480721A6000BF304B1B685B6903F053
:100790000103002BF8D02D4B1B689B69FB60FB7994
:1007A00043F00103DAB2294B1B681A6100BF274BE3
:1007B0001B685B6903F08203002BF8D0234B1B6896
:1007C0009B69FB600023BB602DE07B79013B1A46EF
:1007D000BB689A4208D11D4B1B681A681B4B1B68EB
:1007E00022F480621A6007E0184B1B681A68174BE6
:1007F0001B6842F480621A6000BF144B1B685B697F
:1008000003F04003002BF8D0104B1B689B69FB6082
:100810000E4B1B681969BB683A681344CAB21A7058
:10082000BB680133BB607A79BB689A42CDD8074B6D
:100830001B681A68054B1B6842F400721A6000BFFF
:100840001437BD465DF8047B704700BF28000020C8
:10085000B0B58AB004AF3A4606233B21D020FFF75B
:100860004BFF3B781B021AB27B781BB21343FB820F
:10087000BB781B021AB2FB781BB21343BB823B79D5
:100880001B021AB27B791BB213437B82B7F9163075
:10089000002B02DA03F57F533F339B133B82B7F9FA
:1008A0001430002B02DA03F57F533F339B13FB8197
:1008B000B7F91230002B02DA03F57F533F339B1355
:1008C000BB81FB8AC3F30D039BB25B08194AA2FBF1
:1008D00003235B0A7B81BB8AC3F30D039BB25B08D6
:1008E000144AA2FB03235B0A3B817B8AC3F30D03FB
:1008F0009BB25B080F4AA2FB03235B0AFB80B7F99C
:1009000010407D89B7F90E303A89B7F90C10F88894
:1009100003900291019200932B4622460649074814
:1009200000F07AF9054800F0ADF800BF1837BD4671
:10093000B0BD00BFA1000AA05C150008B4000020F3
:1009400080B582B000AF0023FB803A4602234121EC
:10095000D020FFF7D1FE3B781B021AB27B781BB286
:100960001343FB80B7F906300C4A82FB0312D21105
:10097000DB17D31A1BB29BB224339BB2BB80B7F9EF
:100980000420B7F906300649064800F045F9054845
:1009900000F078F800BF0837BD4680BD6160606038
:1009A0007C150008B400002080B582B000AF0023A1
:1009B000FB71FA1D01231C21D020FFF731FEFA1D27
:1009C00001231C21D020FFF797FEFB791A46054929
:1009D000054800F021F9044800F054F800BF08373A
:1009E000BD4680BD98150008B400002080B483B0D7
:1009F00000AF0346FB71134B1B681A68114B1B6851
:100A000022F040021A6000BF0E4B1B681B6803F007
:100A10008003002BF8D00B4B1B68FA795A60094B06
:100A20001B68FA795A6000BF064B1B681B6803F00D
:100A30004003002BF8D000BF00BF0C37BD465DF867
:100A4000047B70471800002080B400AF0C4B1B687B
:100A5000DA680B4B1B6842F00402DA6000BF084BF7
:100A60001B681B6803F02003002BF8D0044B1B68A5
:100A70005B68DBB21846BD465DF8047B704700BF7B
:100A80001800002080B582B000AF786006E07B6877
:100A90005A1C7A601B781846FFF7A8FF7B681B7802
:100AA000002BF4D100BF00BF0837BD4680BD80B425
:100AB00083B000AF00237B6002E07B6801337B6082
:100AC0007B68054A9342F8DD00BF00BF0C37BD4686
:100AD0005DF8047B704700BF3F420F00000000003C
:100AE00001F0FF01102A2BDB10F0070F08D010F8DF
:100AF000013B013A8B422DD010F0070F42B3F6D1E3
:100B0000F0B441EA012141EA014122F007047FF0FB
:100B100000070023F0E80256083C85EA010586EA52
:100B2000010685FA47F5A3FA87F586FA47F6A5FA8E
:100B300087F68EB9EED1F0BC01F0FF0102F007029A
:100B400032B110F8013B013A83EA010313B1F8D145
:100B50000020704701387047002D06BF3546033826
:100B6000073815F0010F07D1013015F4807F02BF5F
:100B7000013015F4C03F0130F0BC0138704700BFB0
:100B800070B50D4D0D4C641BA4100026A64209D172
:100B90000B4D0C4C00F0BCFC641BA4100026A642BC
:100BA00005D170BD55F8043B98470136EEE755F87E
:100BB000043B98470136F2E7D8150008D81500081D
:100BC000D8150008DC150008DFF830D00C480D49B6
:100BD0000D4A002302E0D458C4500433C4188C4298
:100BE000F9D30A4A0A4C002301E013600432A242FE
:100BF000FBD3FFF7C5FFFFF7F3FA704700000120B2
:100C00000000002094000020E0150008940000205F
:100C10002C010020FEE700000EB400B59CB01DAB17
:100C2000029006906FF0004109480791049109492C
:100C300053F8042B05910068019302A900F068F8AD
:100C4000029B00221A701CB05DF804EB03B07047E1
:100C5000300000200802FFFF2DE9F0478E689E4219
:100C600082460C4690461F4638D88A8912F4906F07
:100C700032D025680969A5EB0109656905EB4505D1
:100C800005EBD57501334B446D109D4238BF1D46B1
:100C9000530531D5294600F063FB064650B90C23B5
:100CA000CAF80030A38943F04003A3814FF0FF301E
:100CB000BDE8F08721694A4600F0BEFAA38923F413
:100CC000906343F08003A381266165614E44A5EBE8
:100CD00009052660A5603E46BE4200D93E46206812
:100CE0003246414600F0B6FAA3689B1BA360236816
:100CF000334423600020DBE72A4600F0A5FB0646CC
:100D00000028E1D12169504600F0BEFAC7E7000093
:100D10002DE9F04F98468B891B069DB007460D467E
:100D200014460ED50B6963B9402100F019FB286009
:100D3000286120B90C233B604FF0FF30D1E0402305
:100D40006B610023099320238DF82930CDF80C80A6
:100D50003023DFF8A8818DF82A304FF001092346AF
:100D60009A4613F8012B0AB1252AF9D1BAEB040BE4
:100D70000BD05B46224629463846FFF76DFF01300F
:100D800000F0AA80099A5A4409929AF80030002B80
:100D900000F0A28000234FF0FF32CDE905230AF1D5
:100DA000010A049307938DF853301A935446052291
:100DB00014F8011B5148FFF793FE049AD8B9D006E6
:100DC00044BF20238DF85330110744BF2B238DF8E7
:100DD00053309AF800302A2B15D0079A5446002039
:100DE0004FF00A0C214611F8013B303B092B4ED93C
:100DF000B0B1079214E0A0EB080309FA03F3134320
:100E00000493A246D2E7039B191D1B680391002B94
:100E1000BBBF5B4242F0020207930793B8BF049244
:100E200023782E2B0CD163782A2B35D1039B1A1DE6
:100E30001B680392002BB8BF4FF0FF3302340593B9
:100E4000DFF8C8A0217803225046FFF749FE40B1E1
:100E50004023A0EB0A0003FA00F0049B0343013493
:100E6000049314F8011B26488DF828100622FFF77A
:100E700037FE002838D0234B1BBB039B073323F0DE
:100E8000070308330393099B3344099367E70CFB7B
:100E900002320C460120A5E70023013405931946D0
:100EA0004FF00A0C204610F8012B303A092A03D9DA
:100EB000002BC5D00591C3E70CFB0121044601239B
:100EC000F0E703AB00932A460F4B04A93846AFF373
:100ED0000080421C0646D6D1AB895B063FF52CAF9D
:100EE00009981DB0BDE8F08F03AB00932A46064B6E
:100EF00004A9384600F07AF8EBE700BFA215000815
:100F0000AC15000800000000590C0008A8150008E6
:100F10002DE9F047164699468A680B69DDF820806E
:100F20009342B8BF1346336091F8432007460C46FE
:100F30000AB1013333602368990642BF3368023334
:100F40003360256815F0060506D104F1190AE36837
:100F500032689B1AAB4226DC94F84320131E2268A9
:100F600018BF012392062BD404F1430249463846A8
:100F7000C04701301ED02368E568326803F00603DD
:100F8000042B08BFAD1AA36822690CBF25EAE575DA
:100F900000259342C4BF9B1AED1800261A34B542AF
:100FA0001AD1002008E00123524649463846C0477E
:100FB000013003D14FF0FF30BDE8F0870135C6E7BF
:100FC000E1185A1C302081F84300224494F845105F
:100FD00082F843100233C7E70123224649463846C8
:100FE000C0470130E6D00136D9E700002DE9FF47C0
:100FF0000F7E0C9D782F914680460C469A4601F153
:10100000430207D8622F0AD8002F00F0D880582F4B
:1010100000F0A38004F1420584F842703AE0A7F1A1
:101020006303152BF6D801A151F823F085100008B1
:101030009910000815100008151000081510000878
:101040001510000899100008151000081510000868
:101050001510000815100008A5110008C910000897
:10106000871100081510000815100008C7110008A6
:1010700015100008C9100008151000081510000808
:101080008F1100082B681A1D1B682A6004F14205A5
:1010900084F842300123A3E020682968060601F1A4
:1010A00004030AD50E682B60002E03DA2D23764246
:1010B00084F843305E480A2319E00E682B6010F074
:1010C000400F18BF36B2EFE72B682068191D296062
:1010D000010601D51E6802E04606FBD51E8854486D
:1010E0006F2F0CBF08230A23002184F84310656882
:1010F000A560002DA2BF216821F0040121600EB976
:10110000002D4DD01546B6FBF3F103FB1167C75D0B
:1011100005F8017D3746BB420E46F4D9082B0BD1AA
:101120002368DE0708D5236961689942DEBF302352
:1011300005F8013C05F1FF35521B2261CDF800A0F6
:101140004B4603AA21464046FFF7E2FE01304CD150
:101150004FF0FF3004B0BDE8F087354881F84570A6
:101160002968236851F8046B29601D0614D5DF0730
:1011700044BF43F0200323601EB9236823F02003FB
:1011800023601023B0E7236843F020032360782313
:10119000284884F84530E3E7590648BFB6B2E6E789
:1011A0001546BBE72B6826686169181D286035065F
:1011B0001B6801D5196002E07006FBD51980002379
:1011C00023611546BAE72B681A1D2A601D686268FC
:1011D00000212846FFF784FC08B1401B606063686B
:1011E0002361002384F84330A8E723692A4649464F
:1011F0004046D0470130ABD023689B0713D4E0684A
:10120000039B9842B8BF1846A4E7012332464946DB
:101210004046D04701309BD00135E36803995B1A03
:10122000AB42F2DCEBE7002504F11906F5E700BF5D
:10123000B3150008C41500080A44914200F1FF33B9
:1012400000D1704710B511F8014B03F8014F9142DE
:10125000F9D110BD884210B501EB020402D98442D5
:10126000234607D8431EA14208D011F8012B03F8EA
:10127000012FF8E7024401468A4200D110BD13F85D
:10128000014D02F8014DF7E737B5002944D051F878
:10129000043C0190002BA1F10404B8BFE41800F055
:1012A00013F91E4A0198136833B96360146003B0E0
:1012B000BDE8304000F00EB9A34208D92568611995
:1012C0008B4201BF19685B6849192160EDE71A4636
:1012D0005B680BB1A342FAD911685518A5420BD12E
:1012E000246821445418A3421160E0D11C685B6853
:1012F000536021441160DAE702D90C230360D6E77A
:10130000256861198B4204BF19685B68636004BF7C
:10131000491921605460CAE703B030BD18010020AC
:1013200070B50E4E0C463168054611B900F0BCF898
:1013300030602146284600F0B7F8431C0AD0C41C90
:1013400024F00304A04207D0211A284600F0ACF88C
:10135000013001D14FF0FF34204670BD1C01002048
:101360002DE9F041CD1C25F0030508350C2D38BFC3
:101370000C25002D074601DBA94205D90C233B6053
:1013800000263046BDE8F0812E4E00F09DF833680F
:101390001C4634BB29463846FFF7C2FF431C0446AF
:1013A0004DD134682646002E40D123683146384658
:1013B00004EB030800F078F880453AD12168033542
:1013C0006D1A25F0030508350C2D38BF0C2529466C
:1013D0003846FFF7A5FF01302BD023682B4423604C
:1013E0000EE02268521B1ED40B2A16D96119A342A3
:1013F000256018BF5960636808BF316062514B6057
:10140000384604F10B0600F065F826F00706231DA8
:10141000F21AB6D09B1BA350B3E76268A3420CBF7D
:1014200032605A60ECE723466468B2E73446766877
:10143000B9E70C233B60384600F04CF8A1E7256083
:10144000DEE700BF180100202DE9F0418046144678
:101450000E4621B9BDE8F0411146FFF781BF2AB918
:10146000FFF712FF25462846BDE8F08100F038F866
:101470008442074602D8B4EB500F12D821464046AA
:10148000FFF76EFF05460028EDD0BC4222463146EC
:1014900028BF3A46FFF7D0FE31464046FFF7F4FE3C
:1014A000E1E73546DFE7000038B5064D0023044686
:1014B00008462B6000F01EF8431C02D12B6803B1D4
:1014C000236038BD20010020014800F011B800BFA2
:1014D00024010020014800F00CB800BF24010020C6
:1014E00051F8043C181F002BBCBF0B58C0187047A4
:1014F00070477047044A05491368002B08BF0B4624
:101500001844106018467047280100203001002060
:10151000F8B500BFF8BC08BC9E467047F8B500BFE0
:08152000F8BC08BC9E467047B0
:101528004D50553630353020636F6E6E6563746587
:10153800642E2E2E2E0D0A004D5055363035302093
:101548006E6F7420636F6E6E65637465642E2E2EE5
:101558002E0D0A0041783D25642E25752C41793DD4
:1015680025642E25752C417A3D25642E25750D0A96
:101578000000000054454D503D25686920646567AA
:101588005F432E2E76616C753D2568690D0A000053
:10159800646174613D25640D0A00232D302B200001
:1015A800686C4C0065666745464700303132333415
:1015B80035363738394142434445460030313233B5
:1015C8003435363738396162636465660000000077
:0415D800C501000841
:0415DC00A101000861
:1015E00000E100E080E100E000E200E080E200E0F5
:1015F00000E300E000E400E0004400400038024066
:101600000000024000040240005400400064024018
:101610003400002000000000000000000000000076
:1016200000000000000000000000000000000000BA
:1016300000000000000000000000000000000000AA
:10164000000000000000000000000000000000009A
:10165000000000000000000000000000000000008A
:10166000000000000000000000000000000000007A
:041670000000000076
:0400000508000BC91B
:00000001FF
