:020000040800F2
:1000000000000120590B0008A50B0008A50B0008F3
:10001000A50B0008A50B0008A50B000800000000B8
:10002000000000000000000000000000A50B000818
:10003000A50B000800000000A50B0008A50B000898
:10004000A50B0008A50B0008A50B0008A50B0008D0
:10005000A50B0008A50B0008A50B0008A50B0008C0
:10006000A50B0008A50B0008A50B0008A50B0008B0
:10007000A50B0008A50B0008A50B0008A50B0008A0
:10008000A50B0008A50B0008A50B00080000000048
:10009000000000000000000000000000A50B0008A8
:1000A000A50B0008A50B0008A50B0008A50B000870
:1000B000A50B0008A50B0008A50B0008A50B000860
:1000C000A50B0008A50B0008A50B0008A50B000850
:1000D000A50B0008A50B0008A50B000800000000F8
:1000E000A50B0008A50B0008A50B000800000000E8
:1000F000000000000000000000000000A50B000848
:1001000000000000A50B0008A50B0008A50B0008C7
:1001100000000000000000000000000000000000DF
:10012000A50B0008A50B0008A50B0008A50B0008EF
:10013000A50B000800000000000000000000000007
:10014000000000000000000000000000A50B0008F7
:10015000A50B0008A50B0008A50B0008A50B0008BF
:10016000A50B0008A50B000800000000000000001F
:10017000000000000000000000000000000000007F
:1001800000000000A50B00080000000000000000B7
:04019000A50B0008B3
:1001940010B5054C237833B9044B13B10448AFF3BD
:1001A40000800123237010BD6400002000000000C3
:1001B400A80B000808B5034B1BB103490348AFF370
:1001C400008008BD0000000068000020A80B0008A3
:1001D40080B584B000AF0023FB71104800F08EFCA2
:1001E4000346FB600E4800F089FC0346BB6000F048
:1001F40019F800F091F800F081F900F015FBFA1DF0
:1002040001236B21D02000F0FBF900F0DDFBFA1D87
:1002140001237521D02000F073FAFEE7300000209E
:100224004400002080B400AF3A4B1B681A6B394B72
:100234001B6842F004021A63364B1B681A6B354B79
:100244001B6842F002021A63324B1B681A6B314B73
:100254001B6842F001021A632E4B1B681A682D4B6F
:100264001B6822F480321A602A4B1B681A68294BD7
:100274001B6842F480321A6000BF264B1B681B685F
:1002840003F40033002BF8D0224B1B689A68214BEF
:100294001B6822F003029A601E4B1B689A681D4B70
:1002A4001B6842F001029A6000BF1A4B1B685A6C2B
:1002B400184B1B6842F400325A64164B1B681A6CC4
:1002C400144B1B6842F400321A64124B1B685A6CBC
:1002D400104B1B6842F010025A640E4B1B681A6BD9
:1002E4000C4B1B6842F400121A630A4B1B681A6B0E
:1002F400084B1B6842F480021A63064B1B681A6C95
:10030400044B1B6842F400121A6400BFBD465DF83A
:10031400047B70471C00002080B400AF424B1B6874
:100324001A68414B1B6822F0F0021A603E4B1B68AE
:100334001A683D4B1B6842F0A0021A603A4B1B68D6
:100344005A68394B1B6822F004025A60364B1B680A
:10035400DA68354B1B6822F0F002DA60324B1B6816
:100364001A6A314B1B6822F470621A622E4B1B68A6
:100374001A6A2D4B1B6842F4E0621A622A4B1B680E
:100384001A6A294B1B6822F470421A62264B1B68B6
:100394001A6A254B1B6842F4E0421A62234B1B681D
:1003A4001A68224B1B6822F470421A601F4B1B68A8
:1003B4001A681E4B1B6842F420421A601B4B1B68D0
:1003C4005A681A4B1B6842F0C0025A60174B1B68EC
:1003D400DA68164B1B6822F47042DA60134B1B6810
:1003E4001A6A124B1B6822F070621A620F4B1B6868
:1003F4001A6A0E4B1B6842F080621A620B4B1B6830
:100404001A6A0A4B1B6822F070421A62074B1B6877
:100414001A6A064B1B6842F080421A6200BFBD464E
:100424005DF8047B704700BF2000002024000020FA
:1004340080B400AF304B1B68DA682F4B1B6842F462
:100444000052DA602C4B1B689B682B4A126823F419
:100454007F4323F0F0039360274B1B689B68264A75
:10046400126843F4A25343F010039360224B1B68B9
:100474009A68214B1B6822F00F029A601E4B1B687E
:100484009A681D4B1B6842F004029A601A4B1B6861
:10049400DA68194B1B6842F40042DA60164B1B6899
:1004A400DA68154B1B6822F48052DA60124B1B6821
:1004B400DA68114B1B6842F00802DA600E4B1B68C5
:1004C4005A690D4B1B6842F080025A610A4B1B6843
:1004D4005A69094B1B6822F008025A61064B1B68D3
:1004E4001A68054B1B6822F040021A6000BFBD4623
:1004F4005DF8047B704700BF1800002080B400AF93
:100504003E4B1B681A683D4B1B6822F400421A607C
:100514003A4B1B681A68394B1B6822F400521A6064
:10052400364B1B681A68354B1B6822F480521A60DC
:10053400324B1B681A68314B1B6842F400621A6024
:100544002E4B1B681A682D4B1B6822F080021A6020
:100554002A4B1B681A68294B1B6822F040021A6058
:10056400264B1B681A68254B1B6822F020021A6070
:10057400224B1B681A68214B1B6822F010021A6078
:100584001E4B1B681A681D4B1B6822F008021A6078
:100594001A4B1B681A68194B1B6822F002021A6076
:1005A400164B1B685A68154B1B6842F400625A606C
:1005B400124B1B685A68114B1B6822F03F025A60A9
:1005C4000E4B1B685A680D4B1B6842F019025A60A7
:1005D4000A4B1B687D22DA61084B1B6818221A62D9
:1005E400064B1B681A68054B1B6842F001021A602F
:1005F40000BFBD465DF8047B704700BF28000020A3
:1006040080B487B000AF3A601A460346FB710B46CC
:10061400BB7113467B71374ABB7913707B79013305
:100624007B7101233B610023FB600CE0FB683A68AB
:100634001A443B6911782F4AD1543B6901333B6119
:10064400FB680133FB607A793B699A42EED82A4B06
:100654001B68284AC3F8C420274B1B687A79C3F85F
:10066400BC20264B1B681A68244B1B6842F480721A
:100674001A6000BF214B1B685B6903F00103002B68
:10068400F8D01E4B1B689B697B611C4B1B68FA7975
:100694001A6100BF194B1B685B6903F08203002BCE
:1006A400F8D0164B1B689B697B61134B1B68D3F80E
:1006B400B820114B1B6842F00102C3F8B82000BFF8
:1006C4000D4B1B685B6803F00063002BF8D00A4BEA
:1006D4001B684FF04062DA60084B1B681A68074BCE
:1006E4001B6842F400721A6000BF1C37BD465DF8F7
:1006F400047B7047800000202C000020280000208C
:1007040080B487B000AF3A601A460346FB710B46CB
:10071400BB7113467B71424B1B681A68404B1B68C4
:1007240042F480721A6000BF3D4B1B685B6903F0A2
:100734000103002BF8D03A4B1B689B697B61384B53
:100744001B68FA791A6100BF354B1B685B6903F0BB
:100754008203002BF8D0324B1B689B697B61304BC2
:100764001B68BA791A6100BF2D4B1B685B6903F0E3
:100774000703002BF8D02A4B1B689B697B61284B2D
:100784001B681A68264B1B6842F480721A6000BF0B
:10079400234B1B685B6903F00103002BF8D0204B4B
:1007A4001B689B697B61FB7943F00103DAB21C4B44
:1007B4001B681A6100BF1A4B1B685B6903F0820354
:1007C400002BF8D0164B1B689B697B61154B1B688B
:1007D400BA79DA61134B1B687A795A61114B1B6839
:1007E4001A69104B1B6842F001021A6100BF0D4BDD
:1007F4001B681B6803F02003002BF8D0094B1B680F
:1008040030229A60064B1B681A68054B1B6842F439
:1008140000721A6000BF1C37BD465DF8047B704748
:10082400280000202C00002080B400AF644B1B681B
:10083400D3F8B820624B1B6822F00102C3F8B82039
:1008440000BF5F4B1B68D3F8B83003F00103002BE3
:10085400F7D15B4B1B68D3F8B820594B1B6822F0C7
:100864006062C3F8B820564B1B68D3F8B820544BC9
:100874001B6842F00072C3F8B820514B1B68D3F8D0
:10088400B8204F4B1B6822F02002C3F8B8204C4B11
:100894001B68D3F8B8204A4B1B6822F44032C3F8D3
:1008A400B820474B1B68D3F8CC20454B1B6822F07B
:1008B4000402C3F8CC20424B1B68D3F8B820404B49
:1008C4001B6822F0C072C3F8B8203D4B1B68D3F8F4
:1008D400B8203B4B1B6822F4C002C3F8B820384B45
:1008E4001B68D3F8B820364B1B6822F40022C3F8E7
:1008F400B820334B1B68D3F8B820314B1B6822F463
:100904008022C3F8B8202E4B1B68D3F8B8202C4B98
:100914001B6822F40042C3F8B820294B1B68D3F8A3
:10092400B820274B1B6822F4C042C3F8B820244BDC
:100934001B68D3F8B820224B1B6822F4C052C3F8BA
:10094400B8201F4B1B68D3F8B8201D4B1B6842F41A
:100954008062C3F8B8201A4B1B68D3F8B820184B30
:100964001B6822F40072C3F8B820164B1B6803F10D
:100974001002134B1B68C3F8C020114B1B68D3F83B
:10098400B8200F4B1B6822F48072C3F8B8200C4BBC
:100994001B68D3F8B8200A4B1B6822F0C002C3F8C6
:1009A400B820074B1B68D3F8B820054B1B6842F0EE
:1009B4004002C3F8B82000BFBD465DF8047B704711
:1009C4002C0000202800002080B400AF494B1B6895
:1009D4001A69484B1B6822F001021A6100BF454B9B
:1009E4001B681B6903F00103002BF8D1414B1B6802
:1009F4001A69404B1B6822F060621A613D4B1B6808
:100A04001A693C4B1B6842F000721A61394B1B682F
:100A14001A69384B1B6822F440321A61354B1B6843
:100A24005A6A344B1B6822F004025A62314B1B6829
:100A34001A69304B1B6822F0C0721A612D4B1B6877
:100A44001A692C4B1B6822F4C0021A61294B1B68DB
:100A54001A69284B1B6822F400221A61254B1B6873
:100A64001A69244B1B6822F480221A61214B1B68EB
:100A74001A69204B1B6822F400421A611D4B1B6843
:100A84001A691C4B1B6822F4C0421A61194B1B687B
:100A94001A69184B1B6822F4C0521A61154B1B6863
:100AA4001A69144B1B6842F480621A61114B1B686B
:100AB4001A69104B1B6822F400721A610E4B1B68F2
:100AC40003F110020B4B1B689A610A4B1B681A69ED
:100AD400084B1B6822F480721A61064B1B681A6962
:100AE400044B1B6822F0C0021A6100BFBD465DF8CA
:100AF400047B70472C00002028000020034613F8D4
:100B0400012B002AFBD1181A0138704770B50D4D1E
:100B14000D4C641BA4100026A64209D10B4D0C4CAD
:100B240000F040F8641BA4100026A64205D170BD55
:100B340055F8043B98470136EEE755F8043B9847CF
:100B44000136F2E7C00B0008C00B0008C00B000818
:100B5400C40B0008DFF830D00C480D490D4A0023BF
:100B640002E0D458C4500433C4188C42F9D30A4A5E
:100B74000A4C002301E013600432A242FBD3FFF7C6
:100B8400C5FFFFF725FB704700000120000000208F
:100B940064000020C80B00086400002098000020B6
:100BA400FEE70000F8B500BFF8BC08BC9E467047DD
:0C0BB400F8B500BFF8BC08BC9E467047B6
:040BC000B90100086F
:040BC400950100088F
:100BC80000E100E080E100E000E200E080E200E017
:100BD80000E300E000E400E00010014000380240BB
:100BE800000002400004024000540040006002403F
:100BF8000D0A5343484F4F4C204F46204C494E5501
:100C0800580000000D0A41524D20434F5254455898
:100C18002053544D3332462050524F4553534F5270
:040C28000D0A0000B1
:0400000508000B598B
:00000001FF
