:020000040800F2
:10000000000001204D050008990500089905000829
:1000100099050008990500089905000800000000EE
:10002000000000000000000000000000990500082A
:1000300099050008000000009905000899050008CE
:100040009905000899050008990500089905000818
:100050009905000899050008990500089905000808
:1000600099050008990500089905000899050008F8
:1000700099050008990500089905000899050008E8
:10008000990500089905000899050008000000007E
:1000900000000000000000000000000099050008BA
:1000A00099050008990500089905000899050008B8
:1000B00099050008990500089905000899050008A8
:1000C0009905000899050008990500089905000898
:1000D000990500089905000899050008000000002E
:1000E000990500089905000899050008000000001E
:1000F000000000000000000000000000990500085A
:1001000000000000990500089905000899050008FD
:1001100000000000000000000000000000000000DF
:100120009905000899050008990500089905000837
:100130009905000800000000000000000000000019
:100140000000000000000000000000009905000809
:100150009905000899050008990500089905000807
:100160009905000899050008000000000000000043
:10017000000000000000000000000000000000007F
:1001800000000000990500080000000000000000C9
:0401900099050008C5
:1001940010B5054C237833B9044B13B10448AFF3BD
:1001A40000800123237010BD7C00002000000000AB
:1001B4009C05000808B5034B1BB103490348AFF382
:1001C400008008BD00000000800000209C0500089D
:1001D40080B500AF00F00BF800F05CF800F0AEF86A
:1001E40000F006F900F020F900F054F9FAE780B4C1
:1001F40000AF244B1B681A68224B1B6842F00402B0
:100204001A60214B1B681A681F4B1B6822F480324A
:100214001A601D4B1B681A681B4B1B6842F4803222
:100224001A6000BF184B1B681B6803F40033002BD3
:10023400F8D0164B1B681A68144B1B6822F0030293
:100244001A60124B1B681A68104B1B6842F00102BB
:100254001A6000BF0D4B1B681B680D4B1B681A68A6
:100264000B4B1B6842F400321A60094B1B681A6876
:10027400074B1B6842F480221A6000BFBD465DF83C
:10028400047B70470C0000200000002008000020C0
:100294001000002080B400AF214B1B681A68204B6B
:1002A4001B6842F080021A601D4B1A681C4B1B68C5
:1002B40012681A601A4B1A68194B1B6812681A6084
:1002C400174B1A68164B1B6812681A60154B1A688C
:1002D400144B1B6812681A60134B1B681A68124B84
:1002E4001B6822F001021A60104B1B681A680F4B3E
:1002F4001B6842F001021A600D4B1B6864221A60ED
:100304000C4B1B684FF47A721A600B4B1B6840F25B
:10031400DB121A6000BFBD465DF8047B704700BF66
:100324002C000020440000203C000020400000205D
:1003340030000020340000203800002080B400AFDA
:10034400244B1B681A68234B1B6842F080021A6016
:10035400204B1A681F4B1B6812681A601D4B1A68E1
:100364001C4B1B6812681A601A4B1A68194B1B68DD
:1003740012681A60184B1A68174B1B6812681A60C7
:10038400164B1B681A68154B1B6822F001021A6091
:10039400134B1B681A68124B1B6842F001021A6067
:1003A400104B1B6864221A600F4B1B684FF47A725F
:1003B4001A600E4B1B6819221A60064B1B681A68D8
:1003C400044B1B6842F001021A6000BFBD465DF891
:1003D400047B704748000020600000205800002083
:1003E4005C0000204C00002050000020540000203D
:1003F40080B400AF094B1B684FF080621A60084B51
:100404001B684FF400521A60064B1B684FF40052ED
:100414001A6000BFBD465DF8047B704714000020DD
:10042400180000201C00002080B400AF164B1B688D
:100434001A68154B1B6822F400521A60134B1B6890
:100444001A68124B1B6842F001021A6000BF104B7D
:100454001B681B6803F00103002BF8D00C4B1B68CE
:100464001A680B4B1B6822F001021A60074B1B68C9
:100474001A68064B1B6822F001021A6000BFBD46D1
:100484005DF8047B704700BF1C0000202C00002096
:100494003C00002080B400AF164B1B681A68154B53
:1004A4001B6842F400521A60134B1B681A68124B03
:1004B4001B6842F001021A6000BF104B1B681B68E6
:1004C40003F00103002BF8D00C4B1B681A680B4B8C
:1004D4001B6822F001021A60074B1B681A68064B5E
:1004E4001B6822F001021A6000BFBD465DF8047B60
:1004F400704700BF1C000020480000205800002066
:1005040070B50D4D0D4C641BA4100026A64209D1F4
:100514000B4D0C4C00F040F8641BA4100026A642BE
:1005240005D170BD55F8043B98470136EEE755F800
:10053400043B98470136F2E7B4050008B405000807
:10054400B4050008B8050008DFF830D00C480D49A0
:100554000D4A002302E0D458C4500433C4188C421A
:10056400F9D30A4A0A4C002301E013600432A24280
:10057400FBD3FFF7C5FFFFF72BFE704700000120F8
:10058400000000207C000020BC0500087C00002046
:1005940098000020FEE70000F8B500BFF8BC08BCD6
:1005A4009E467047F8B500BFF8BC08BC9E4670472D
:0405B400B901000881
:0405B80095010008A1
:1005BC00003802400438024008380240303802400B
:1005CC00443802400008024004080240140802406B
:1005DC0010E000E014E000E018E000E0004401400E
:1005EC0024440140284401402C4401401044014063
:1005FC00144401400C44014000480140244801408F
:10060C00284801402C480140104801401448014042
:10061C000C48014000E100E080E100E000E200E075
:0C062C0080E200E000E300E000E400E0F9
:040000050800054D9D
:00000001FF
