:020000040800F2
:1000000000000120ED0A0008390B0008390B000838
:10001000390B0008390B0008390B000800000000FC
:10002000000000000000000000000000390B000884
:10003000390B000800000000390B0008390B0008DC
:10004000390B0008390B0008390B0008390B000880
:10005000390B0008390B0008390B0008390B000870
:10006000390B0008390B0008390B0008390B000860
:10007000390B0008390B0008390B0008390B000850
:10008000390B0008390B0008390B0008000000008C
:10009000000000000000000000000000390B000814
:1000A000390B0008390B0008390B0008390B000820
:1000B000390B0008390B0008390B0008390B000810
:1000C000390B0008390B0008390B0008390B000800
:1000D000390B0008390B0008390B0008000000003C
:1000E000390B0008390B0008390B0008000000002C
:1000F000000000000000000000000000390B0008B4
:1001000000000000390B0008390B0008390B00080B
:1001100000000000000000000000000000000000DF
:10012000390B0008390B0008390B0008390B00089F
:10013000390B000800000000000000000000000073
:10014000000000000000000000000000390B000863
:10015000390B0008390B0008390B0008390B00086F
:10016000390B0008390B00080000000000000000F7
:10017000000000000000000000000000000000007F
:1001800000000000390B0008000000000000000023
:04019000390B00081F
:1001940010B5054C237833B9044B13B10448AFF3BD
:1001A40000800123237010BD3001002000000000F6
:1001B4003C0B000808B5034B1BB103490348AFF3DC
:1001C400008008BD00000000340100203C0B000842
:1001D40080B584B000AF0023FB710B4800F058FCDD
:1001E4000346FB60094800F053FC0346BB6000F083
:1001F4000FF800F083F800F08DF9FA1D0123752142
:10020400D02000F093FAFEE7F00000201001002057
:1002140080B400AF344B1B681A68334B1B6842F040
:1002240004021A60304B1B681A682F4B1B6842F09B
:1002340002021A602C4B1B681A682B4B1B6842F095
:1002440001021A60294B1B681A68284B1B6822F4A8
:1002540080321A60254B1B681A68244B1B6842F4D1
:1002640080321A6000BF214B1B681B6803F4003303
:10027400002BF8D01E4B1B681A681D4B1B6822F01C
:1002840003021A601A4B1B681A68194B1B6842F068
:1002940001021A6000BF164B1B681B68154B1B68D4
:1002A4001A68144B1B6842F400321A60124B1B6824
:1002B4001A68114B1B6842F400321A600E4B1B681B
:1002C4001A680D4B1B6842F400121A60064B1B6837
:1002D4001A68054B1B6842F400121A6000BFBD4641
:1002E4005DF8047B704700BF0C0000200000002074
:1002F40008000020100000201400002080B400AF8B
:10030400464B1B681A68454B1B6822F0F0021A60C2
:10031400424B1B681A68414B1B6842F0A0021A60EA
:100324003F4B1B681A683E4B1B6822F040021A6060
:100334003B4B1B681A683A4B1B6822F080021A6018
:10034400384B1B681A68374B1B6822F0F0021A609E
:10035400354B1B681A68344B1B6822F470621A60B0
:10036400314B1B681A68304B1B6842F4E0621A6018
:100374002D4B1B681A682C4B1B6822F470421A60C0
:10038400294B1B681A68284B1B6842F4E0421A6028
:10039400264B1B681A68254B1B6822F470421A60AE
:1003A400224B1B681A68214B1B6842F420421A60D6
:1003B4001F4B1B681A681E4B1B6822F0C0021A6090
:1003C4001C4B1B681A681B4B1B6822F470421A6092
:1003D400194B1B681A68184B1B6822F070621A606C
:1003E400154B1B681A68144B1B6842F080621A6034
:1003F400114B1B681A68104B1B6822F070421A607C
:100404000D4B1B681A680C4B1B6842F080421A6043
:1004140000BFBD465DF8047B704700BF300000207C
:10042400340000203C000020400000201800002080
:100434001C000020240000202800002080B400AF0D
:10044400304B1B681A682F4B1B6842F400521A6029
:100454002D4B1B681B682C4A126823F47F4323F03E
:10046400F0031360284B1B681B68274A126843F487
:10047400A25343F010031360234B1B681A68224BEA
:100484001B6822F00F021A601F4B1B681A681E4B70
:100494001B6842F004021A601A4B1B681A68194B55
:1004A4001B6842F400421A60164B1B681A68154B0D
:1004B4001B6822F480521A60124B1B681A68114B95
:1004C4001B6842F008021A60104B1B681A680F4B35
:1004D4001B6842F080021A600C4B1B681A680B4BB5
:1004E4001B6822F008021A60094B1B681A68084B43
:1004F4001B6822F040021A6000BFBD465DF8047B11
:10050400704700BF900000208C000020980000205D
:100514008400002080B400AF424B1B681A68414B32
:100524001B6842F400421A603E4B1B681A683D4B3C
:100534001B6822F400421A603A4B1B681A68394B54
:100544001B6822F400521A60364B1B681A68354B3C
:100554001B6822F480521A60324B1B681A68314BB4
:100564001B6822F400621A602E4B1B681A682D4B1C
:100574001B6822F080021A602A4B1B681A68294BF8
:100584001B6822F040021A60264B1B681A68254B30
:100594001B6822F020021A60224B1B681A68214B48
:1005A4001B6822F010021A601E4B1B681A681D4B50
:1005B4001B6822F008021A601A4B1B681A68194B50
:1005C4001B6822F002021A60164B1B681A68154B4E
:1005D4001B6842F480621A60134B1B681A68124B42
:1005E4001B6822F03F021A600F4B1B681A680E4BFF
:1005F4001B6842F019021A600C4B1B687D221A60BA
:100604000B4B1B6818221A60064B1B681A68054BB3
:100614001B6842F001021A6000BFBD465DF8047B0E
:10062400704700BFC8000020CC000020E400002078
:10063400E800002080B485B000AF3A601A46034653
:10064400FB710B46BB7113467B71344B1B681A68F4
:10065400324B1B6842F480721A6000BF304B1B6837
:100664001B6803F00103002BF8D02E4B1B681B689A
:10067400FB602D4B1B68FA791A6000BF284B1B687E
:100684001B6803F08003002BF8D0264B1B681B6803
:10069400FB60254B1B68BA791A6000BF204B1B68AE
:1006A4001B6803F08003002BF8D01E4B1B681B68EB
:1006B400FB600023BB6015E0BB683A6813441A78FA
:1006C400194B1B681A6000BF154B1B681B6803F0AD
:1006D4008003002BF8D0134B1B681B68FB60BB68BE
:1006E4000133BB607A79BB689A42E5D80B4B1B682F
:1006F4001A680A4B1B6842F400721A6000BF084B68
:100704001B681B6803F01003002BF8D000BF00BF68
:100714001437BD465DF8047B704700BFC800002055
:10072400DC000020E0000020D800002080B485B068
:1007340000AF3A601A460346FB710B46BB71134681
:100744007B71534B1B681A68514B1B6842F48072CF
:100754001A6000BF4F4B1B681B6803F00103002B9A
:10076400F8D04D4B1B681B68FB604C4B1B68FA7937
:100774001A6000BF474B1B681B6803F08003002B03
:10078400F8D0454B1B681B68FB60444B1B68BA7967
:100794001A6000BF3F4B1B681B6803F08003002BEB
:1007A400F8D03D4B1B681B68FB60394B1B681A680B
:1007B400374B1B6842F480721A6000BF354B1B68CC
:1007C4001B6803F00103002BF8D0334B1B681B6834
:1007D400FB60FB7943F00103DAB2304B1B681A600B
:1007E40000BF2C4B1B681B6803F00203002BF8D0DE
:1007F400294B1B681B68FB600023BB602DE07B79E1
:10080400013B1A46BB689A4208D1214B1B681A68FF
:100814001F4B1B6822F480621A6007E01C4B1B68A4
:100824001A681B4B1B6842F480621A6000BF194BA4
:100834001B681B6803F04003002BF8D0164B1B68A1
:100844001B68FB60154B1B681968BB683A68134446
:10085400CAB21A70BB680133BB607A79BB689A422A
:10086400CDD80B4B1B681A68094B1B6842F4007205
:100874001A6000BF074B1B681B6803F01003002BB2
:10088400F8D000BF00BF1437BD465DF8047B704745
:10089400C8000020DC000020E0000020D800002078
:1008A40080B400AF504B1B681A684F4B1B6822F092
:1008B40001021A6000BF4C4B1B681B6803F0010364
:1008C400002BF8D1484B1B681A68474B1B6822F071
:1008D40060621A60444B1B681A68434B1B6842F001
:1008E40000621A60404B1B681A683F4B1B6822F079
:1008F40020021A603C4B1B681A683B4B1B6822F4AD
:1009040040321A60394B1B681A68384B1B6822F056
:1009140004021A60344B1B681A68334B1B6822F0BC
:10092400C0721A60304B1B681A682F4B1B6822F484
:10093400C0021A602C4B1B681A682B4B1B6822F4EC
:1009440000221A60284B1B681A68274B1B6822F484
:1009540080221A60244B1B681A68234B1B6822F4FC
:1009640000421A60204B1B681A681F4B1B6822F454
:10097400C0421A601C4B1B681A681B4B1B6822F48C
:10098400C0521A60184B1B681A68174B1B6842F454
:1009940080621A60144B1B681A68134B1B6822F49C
:1009A40000721A60124B1A68124B1B681A600E4BC5
:1009B4001B681A680C4B1B6822F480721A600A4B7D
:1009C4001B681A68084B1B6822F0C0021A60064BA9
:1009D4001B681A68044B1B6842F040021A6000BF8F
:1009E400BD465DF8047B7047B0000020C4000020C1
:1009F40088000020B800002080B483B000AF786085
:100A040039601D4B1B681A681B4B1B6822F040029F
:100A14001A601A4B1B681A68184B1B6822F00102F3
:100A24001A6000BF154B1B681B6803F00103002B01
:100A3400F8D1134B1B687A681A60124B1B683A682A
:100A44001A600E4B1B681A680C4B1B6842F00102BB
:100A54001A6000BF0C4B1B681B6803F40013002BC7
:100A6400F8D00A4B1B684FF440121A6000BF0C37D1
:100A7400BD465DF8047B704784000020B000002070
:100A8400BC000020B4000020A4000020AC00002022
:100A9400034613F8012B002AFBD1181A01387047BA
:100AA40070B50D4D0D4C641BA4100026A64209D14F
:100AB4000B4D0C4C00F040F8641BA4100026A64219
:100AC40005D170BD55F8043B98470136EEE755F85B
:100AD400043B98470136F2E7540B0008540B000816
:100AE400540B0008580B0008DFF830D00C480D49AF
:100AF4000D4A002302E0D458C4500433C4188C4275
:100B0400F9D30A4A0A4C002301E013600432A242DA
:100B1400FBD3FFF7C5FFFFF75BFB70470000012025
:100B240000000020300100205C0B00083001002090
:100B34004C010020FEE70000F8B500BFF8BC08BC7B
:100B44009E467047F8B500BFF8BC08BC9E46704787
:040B5400B9010008DB
:040B580095010008FB
:100B5C000038024004380240083802403038024065
:100B6C004438024040380240000402400404024071
:100B7C00080402400C0402402004024024040240F9
:100B8C000000024004000240140002400C0002402D
:100B9C00200002400044014024440140284401400C
:100BAC002C44014010440140144401400C440140C9
:100BBC0018440140344401402044014000E100E06D
:100BCC0080E100E000E200E080E200E000E300E011
:100BDC0000E400E0004400400444004008440040AD
:100BEC000C440040104400401444004018440040A1
:100BFC000060024004600240086002400C60024049
:100C0C00A0600240A4600240A8600240AC600240B8
:100C1C00B0600240B46002400054004004540040F4
:100C2C00085400400C540040105400401454004030
:100C3C00185400401C5400402054004024540040E0
:100C4C000D0A7363686F6F6C206F66206C696E752C
:100C5C007820446861726D617075726900000000E3
:100C6C000D0A41524D20434F525445582053544D78
:100C7C003332462050524F4553534F520D0A000009
:0400000508000AEDF8
:00000001FF
