:020000040800F2
:1000000000000120250400087104000871040008A4
:100010007104000871040008710400080000000069
:100020000000000000000000000000007104000853
:100030007104000800000000710400087104000849
:1000400071040008710400087104000871040008BC
:1000500071040008710400087104000871040008AC
:10006000710400087104000871040008710400089C
:10007000710400087104000871040008710400088C
:1000800071040008710400087104000800000000F9
:1000900000000000000000000000000071040008E3
:1000A000710400087104000871040008710400085C
:1000B000710400087104000871040008710400084C
:1000C000710400087104000871040008710400083C
:1000D00071040008710400087104000800000000A9
:1000E0007104000871040008710400080000000099
:1000F0000000000000000000000000007104000883
:100100000000000071040008710400087104000878
:1001100000000000000000000000000000000000DF
:1001200071040008710400087104000871040008DB
:100130007104000800000000000000000000000042
:100140000000000000000000000000007104000832
:1001500071040008710400087104000871040008AB
:100160007104000871040008000000000000000095
:10017000000000000000000000000000000000007F
:1001800000000000710400080000000000000000F2
:0401900071040008EE
:1001940010B5054C237833B9044B13B10448AFF3BD
:1001A40000800123237010BD4800002000000000DF
:1001B4007404000808B5034B1BB103490348AFF3AB
:1001C400008008BD000000004C00002074040008FA
:1001D40080B500AF00F007F800F050F800F0ACF87C
:1001E40000F0C6F8FCE780B400AF204B1B681A6827
:1001F4001E4B1B6842F004021A601D4B1B681A68F0
:100204001B4B1B6822F480321A60194B1B681A6856
:10021400174B1B6842F480321A6000BF144B1B68F2
:100224001B6803F40033002BF8D0124B1B681A68C8
:10023400104B1B6822F003021A600E4B1B681A68ED
:100244000C4B1B6842F001021A6000BF094B1B688B
:100254001B68094B1B681A68074B1B6842F4003281
:100264001A6000BFBD465DF8047B70470C00002097
:1002740000000020080000201000002080B400AF1F
:10028400264B1B681A68254B1B6842F080021A60D3
:10029400224B1A68214B1B6812681A601F4B1A689C
:1002A4001E4B1B6812681A601C4B1A681B4B1B6898
:1002B40012681A601A4B1B681A68194B1B6842F0C3
:1002C40001021A60174B1B681A68164B1B6822F050
:1002D40001021A60144B1B681A68134B1B6842F026
:1002E40001021A60114B1B684FF47A721A60104BAA
:1002F4001B6846F2A8121A600E4B1B684FF47A7200
:100304001A60064B1B681A68044B1B6842F0010212
:100314001A6000BFBD465DF8047B70472C000020C6
:10032400440000203C000020400000203000002059
:10033400340000203800002080B400AF094B1B6853
:100344004FF080621A60084B1B684FF400521A6029
:10035400064B1B684FF400521A6000BFBD465DF89F
:10036400047B704714000020180000201C000020AB
:1003740080B400AF00BF164B1B681B6803F0010379
:10038400002BF8D0124B1B681A68114B1B6822F023
:1003940001021A600F4B1B681B6803F40053002B07
:1003A40008D00C4B1B681A680A4B1B6822F40052D5
:1003B4001A6007E0074B1B681A68064B1B6842F477
:1003C40000521A6000BFBD465DF8047B704700BF51
:1003D4003C0000201C00002070B50D4D0D4C641B2A
:1003E400A4100026A64209D10B4D0C4C00F040F895
:1003F400641BA4100026A64205D170BD55F8043B29
:1004040098470136EEE755F8043B98470136F2E782
:100414008C0400088C0400088C0400089004000874
:10042400DFF830D00C480D490D4A002302E0D458BF
:10043400C4500433C4188C42F9D30A4A0A4C00232A
:1004440001E013600432A242FBD3FFF7C5FFFFF7BC
:10045400BFFE70470000012000000020480000207B
:10046400940400084800002064000020FEE7000017
:10047400F8B500BFF8BC08BC9E467047F8B500BF8D
:08048400F8BC08BC9E4670475D
:04048C00B9010008AA
:0404900095010008CA
:100494000038024004380240083802403038024034
:1004A4004438024000080240040802401408024094
:1004B40010E000E014E000E018E000E00044014037
:1004C40024440140284401402C440140104401408C
:0804D400144401400C440140F6
:0400000508000425C6
:00000001FF
